:100000000C947A030C94C5130C949A130C946F13EC
:100010000C9444130C9419130C94EE120C94C31208
:100020000C9498120C94AB030C94AB030C94AB039C
:100030000C94AB030C94AB030C94AB030C94AB0388
:100040000C94AB030C94AB030C94AB030C94AB0378
:100050000C94AB030C94AB030C94AB030C944E12B6
:100060000C94AB030C941A140C94F0130C94AB0383
:100070000C94AB030C94AB030C94AB030C94AB0348
:100080000C94AB030C94AB030C94AB030C94AB0338
:100090000C94AB030C94AB030C94AB030C94AB0328
:1000A0000C94AB030C94AB030C94AB030C94AB0318
:1000B0000C94AB030C94AB030C94AB030C94AB0308
:1000C0000C94AB030C94AB030C94AB030C94AB03F8
:1000D0000C94AB030C94AB030C94AB030C94AB03E8
:1000E0000C94AB03036EDB363D9A9999993DABAA0C
:1000F000AA2A3E000000803F084AD73B3BCE016E53
:1001000084BCBFFDC12F3D6C74319ABD56833DDA6E
:100110003D00C77F11BED9E4BB4C3E916BAAAABE7D
:10012000000000803F07634236B79BD8A71A3968A2
:100130005618AEBAAB558C1D3CB7CC5763BD6DEDB0
:10014000FD753EF6177231BF000000803F072C7A24
:10015000A5BA6CC590DA3B9365FC8BBC53F810FDD7
:100160003C5692834DBD879D3AB63DCBC9BF5BBE21
:1001700073DA0FC93F05A84CCDB2D44EB93836A9B1
:10018000020C50B9918688083CA6AAAA2ABE000093
:1001900000803F08000000BE922449123EABAAAA8C
:1001A0002ABECDCCCC4C3E00000080BEABAAAAAA91
:1001B0003E00000000BF000000803F000000000083
:1001C000084178D3BB4387D1133D190E3CC3BD42D0
:1001D00082AD2B3E68EC8276BED98FE1A93E4C8081
:1001E000EFFFBE01C4FF7F3F0000000000028988CE
:1001F000083CABAAAA2A3E000000803F028988087A
:100200003EABAAAAAABE000000803F0664EC1B3CDD
:1002100004BC163E3BE5B93CC93C37C29E5A3D661C
:100220000498083EEA69AAAA3E000000803F0C94A8
:1002300017050C9461060C9471170C94280B0C9400
:10024000ED040C94A7170C944B0A0C940D050C9418
:100250006D170C9490170C948E170C943B170C94FC
:10026000E7100C94EE060C94BB170C9439170C9401
:1002700088170C9486170C94B9170C9449110C9498
:10028000020A0C94BD170C94B7170C9498170C9491
:10029000A20C0C94E90C0C94B5170C9424170C9434
:1002A000E4040C94D70D0C948C170C94300D0C9422
:1002B00035170C9459040C9437170C94D2040C94F1
:1002C000A3170C942F170C94DC110C94590E0C945A
:1002D000A1170C9482050C9409050C9496170C94A4
:1002E00005050C9433170C94DE030C94E7040C946E
:1002F00085100C9469170C94EF060C94A9170C94B4
:100300003F170C947F170C9413050C9454100C9405
:1003100081170C94B6100C94FB040C94BC030C9441
:1003200073170C9483170C947D170C94A5170C94D9
:10033000D0030C940B0F0C942B170C94D8040C9432
:100340009E170C940D120C947A110C947A050C944F
:10035000B3170C94630B0C943D170C94AD030C94E1
:1003600020170C94770D0C9431170C949C170C9457
:1003700064160C94AD170C946C140C94070C0C942C
:10038000680C0C9418110C947B170C94E0040C94DA
:1003900012050C9477170C94B50B0C94AB110C94BC
:1003A0000C040C94F7040C94DC040C946F170C945C
:1003B00094170C949C0A0C94B1170C9493090C9408
:1003C0006B170C94180E0C9475170C94FF040C9476
:1003D000B70F0C94ED0A0C949A170C94AB170C946D
:1003E000AF170C942D170C9492170C9448080C948A
:1003F0008A170C9423100C94F1040C9479174E4135
:100400004E494E495459494E46CDCCCC3D0AD7238E
:100410003C17B7D13877CC2B329595E6241FB14FD6
:100420000A000020410000C84200401C4620BCBE1B
:100430004CCA1B0E5AAEC59D740000200023002636
:100440000029002C002F00320000010000030106EB
:100450000109010000000000000000000000000091
:10046000096000000000000071310000007A736133
:100470007732000063786465343300002076667458
:10048000723500006E62686779360000006D6A752B
:10049000373800002C6B696F303900002E2F6C3B11
:1004A000702D00000027005B3D000000000D5D0086
:1004B0005C00000000000000007F000031003437C5
:1004C000000000302E323536381B00002B332D2A29
:1004D00039000000000000000000000000000000E3
:1004E0000000000000000000097E00000000000085
:1004F00051210000005A53415740000043584445E1
:100500002423000020564654522500004E424847FE
:10051000595E0000004D4A55262A00003C4B494FC9
:10052000292800003E3F4C3A505F00000022007B2B
:100530002B000000000D7D007C000000000000008A
:10054000007F000031003437000000302E32353695
:10055000381B00002B332D2A39000000000000005A
:10056000000000000000000000000000000000008B
:10057000000000000000000000000000000000007B
:10058000000000000000000000000000000000006B
:10059000000000000000000000000000000000005B
:1005A000000000000000000000000000000000004B
:1005B000000000000000000000000000000000003B
:1005C000000000000000000000000000000000002B
:1005D000000000000000000000000000000000001B
:1005E00000000000000000000000000000002100EA
:1005F000240027002A002D003000330001010000F4
:10060000040107010A0100002200250028002B0038
:100610002E003100340002010000050108010B0129
:1006200005050505070508080808020202020A0A6E
:10063000080804040404010101010101010103038C
:10064000030303030303040707070C0C0C0C0C0C37
:100650000C0C0202020206060606060606060B0B34
:100660000B0B0B0B0B0B0102102020080810204075
:100670001020408002010201080402010102040866
:1006800010204080804020100804020180040201F4
:10069000804020100804020108040201010204083D
:1006A00010204080010204081020408000000A0B46
:1006B00002090C0D0E0807030401000000000000F1
:1006C000000000000000000000000000000000002A
:1006D00000000000000000001211100000000000E7
:1006E000000000000000000000000000000000000A
:1006F00000006C1411241FBECFEFD1E2DEBFCDBFCE
:1007000000E00CBF15E0A0E0B2E0EEEEF1E400E0A6
:100710000BBF02C007900D92A23DB107D9F727E0A9
:10072000A2EDB5E001C01D92A430B207E1F713E0DD
:10073000CAE7D3E000E006C021970109802FFE013F
:100740000E94D920C937D10780E00807A9F70E9485
:100750006B150C94F5200C940000FC01538D448D16
:10076000252F30E0842F90E0821B930B541710F05C
:10077000CF96089501970895FC01918D828D981769
:1007800061F0A28DAE0FBF2FB11D5D968C91928D41
:100790009F5F9F73928F90E008958FEF9FEF089572
:1007A000FC01918D828D981731F0828DE80FF11D3B
:1007B000858D90E008958FEF9FEF0895FC01918D56
:1007C000228D892F90E0805C9F4F821B91098F734F
:1007D00099270895FC01A48DA80FB92FB11DA35A24
:1007E000BF4F2C91848D90E001968F739927848F51
:1007F000A689B7892C93A089B1898C918370806474
:100800008C93938D848D981306C00288F389E02D14
:1008100080818F7D80830895EF92FF920F931F93C5
:10082000CF93DF93EC0181E0888F9B8D8C8D9813A3
:100830001AC0E889F989808185FF15C09FB7F894AF
:10084000EE89FF896083E889F989808183708064FB
:1008500080839FBF81E090E0DF91CF911F910F9146
:10086000FF90EF900895F62E0B8D10E00F5F1F4F55
:100870000F731127E02E8C8D8E110CC00FB607FC64
:10088000FACFE889F989808185FFF5CFCE010E94F2
:10089000EA03F1CFEB8DEC0FFD2FF11DE35AFF4F73
:1008A000F0829FB7F8940B8FEA89FB898081806280
:1008B000CFCFCF93DF93EC01888D8823B9F0AA893D
:1008C000BB89E889F9898C9185FD03C0808186FD0B
:1008D0000DC00FB607FCF7CF8C9185FFF2CF80815A
:1008E00085FFEDCFCE010E94EA03E9CFDF91CF91E2
:1008F00008958DE496E00E94DE0321E0892B09F43F
:1009000020E0822F089580E090E0892B29F00E945A
:10091000790481110E94000080E090E0892B49F069
:1009200080E090E0892B29F00E94000081110E9454
:10093000000080E090E0892B49F080E090E0892B76
:1009400029F00E94000081110E94000080E090E0E8
:10095000892B49F080E090E0892B29F00E9400006B
:1009600081110C94000008958150823108F05AC022
:10097000E82FF0E08827E054FB4F8F4F0C94D920EC
:10098000E004E404D204D804DC041205E704ED0416
:10099000F104F704FB04FF040505090512050D0524
:1009A00013051705809180008F778093800008954C
:1009B000809180008F7DF9CF80918000877FF5CF77
:1009C00084B58F7784BD089584B58F7DFBCF8091EA
:1009D000B0008F778093B00008958091B0008F7D34
:1009E000F9CF809190008F77809390000895809147
:1009F00090008F7DF9CF80919000877FF5CF809117
:100A0000A0008F778093A00008958091A0008F7D33
:100A1000F9CF8091A000877FF5CF809120018F775B
:100A2000809320010895809120018F7DF9CF8091DE
:100A30002001877FF5CF1F93CF93DF93282F30E0DE
:100A4000F901E455F94F8491F901EA59F94FD4912C
:100A5000F901E05EF94FC491CC23A9F0162F811162
:100A60000E94B404EC2FF0E0EE0FFF1FEA5FF94F95
:100A7000A591B4918FB7F894EC91111108C0D0955D
:100A8000DE23DC938FBFDF91CF911F910895DE2B82
:100A9000F8CFCF93DF9390E0FC01EA59F94F24910E
:100AA000805E994FFC0184918823D1F090E0880FFB
:100AB000991FFC01E451FA4FA591B491FC01EA5F42
:100AC000F94FC591D491623071F49FB7F8943C917D
:100AD000822F809583238C93E8812E2B28839FBFC0
:100AE000DF91CF9108958FB7F894EC912E2B2C9332
:100AF0008FBFF6CF0895DC01ED91FC910190F0815C
:100B0000E02D1994AF92BF92CF92DF92EF92FF92B5
:100B10000F931F93CF93DF936C017B018B01040F25
:100B2000151FEB015E01AE18BF08C017D10759F0C1
:100B30006991D601ED91FC910190F081E02DC60103
:100B40001995892B79F7C501DF91CF911F910F91ED
:100B5000FF90EF90DF90CF90BF90AF900895CF932C
:100B600020910C0630910D06B90168577F4FA901FD
:100B70004F5E5E4F90910706D901A05FBE4F8091F6
:100B80000A06E0910B068E1305C09093070680E0DD
:100B9000CF9108958F5F8D3208F080E0E82FF0E06C
:100BA000E652FA4FE08180930A06EE2371F3E03FAC
:100BB00011F49160E4CFE03E11F49260E0CF90FF39
:100BC0000FC0E23119F49B7F9C7FD9CFE93511F436
:100BD000977FFACFE131C1F791FFF6CF9F7EF4CF37
:100BE000E23111F49460CBCFE93511F49860C7CFAE
:100BF000E13111F491FD9061C92FCC7F91FF10C0BC
:100C0000EA54E43310F09C2FBACFF0E0EC5EFD4FD5
:100C100080819C2F882309F4B2CFC0930706B8CFF8
:100C200094FF0AC08C91882339F0E83860F7E40F0C
:100C3000F52FF11D8491EDCF9C7031F0E83818F755
:100C4000E60FF72FF11DF6CFE838E8F6E20FF32FA5
:100C5000F11DF0CF80910906882321F0109209063A
:100C600090E0089580910806882379F01092080694
:100C700087FF0EC0982F9F73906890930906829506
:100C8000869586958370806CEBCF0E94AF05F0CF80
:100C90008111E6CF8FEF9FEF0895809108068111B3
:100CA0000EC08091090681110AC00E94AF05982FDD
:100CB0008093080681E0911103C080E0089581E0EF
:100CC0000895CF92DF92EF92FF920F931F93CF93ED
:100CD000DF9320910E0630E0F901E455F94F84913D
:100CE000F901EA59F94FD491F901E05EF94FC49145
:100CF000CC2309F471C081110E94B404EC2FF0E000
:100D0000EE0FFF1FE75CFB4FA591B491EC91ED2333
:100D100031E009F430E0832F2FB7F8944091490671
:100D200050914A0660914B0670914C062FBF00917E
:100D3000D6051091D7052091D8053091D9056A01C3
:100D40007B01C01AD10AE20AF30A970186010B3F20
:100D500011052105310520F01092D5051092D4051A
:100D60004093D6055093D7056093D8057093D90565
:100D70002091D5053FEF320F383048F401C0880F7D
:100D80003A95EAF79091D405892B8093D4052F5F8B
:100D90002093D5052B30B9F480910B068F5F8D32EF
:100DA00008F080E090910A06981749F0E82FF0E0EB
:100DB0009091D405E652FA4F908380930B061092DF
:100DC000D5051092D405DF91CF911F910F91FF901F
:100DD000EF90DF90CF90089580E09ECF089590E04F
:100DE00080E00895CF93DF93EC0160E08E810E9454
:100DF0001B0561E08E810E941B0560E08E810E94D0
:100E00001B058BE891E00197F1F7DF91CF910895F1
:100E1000CF92DF92EF92FF920F931F93CF93DF93C6
:100E20006C017C0187E0E80EF11CD0E0C0E0062FE9
:100E300010E0B8010C2E02C0759567950A94E2F790
:100E40006170F70181917F010E941B052196C430DA
:100E5000D10579F7C601DF91CF911F910F91FF90D6
:100E6000EF90DF90CF900C94F206CF92DF92EF924A
:100E7000FF920F931F93CF93DF93EC01F62E642F15
:100E80008C810E941B058D818F3F19F060E00E94CC
:100E90001B050F2D10E08F8584FF25C06E0187E0B4
:100EA000C80ED11CF12CE12CB8010E2C02C0759596
:100EB00067950A94E2F76170F60181916F010E94D3
:100EC0001B05FFEFEF1AFF0A88E0E816F10461F74F
:100ED000CE01DF91CF911F910F91FF90EF90DF90A6
:100EE000CF900C94F206B80184E0759567958A95C9
:100EF000E1F7CE010E9408076F2DCE01DF91CF915F
:100F00001F910F91FF90EF90DF90CF900C94080706
:100F100040E0682F8AEE96E00C94350781E00E944D
:100F200088078BE39FE10197F1F70895CF93DF9353
:100F3000613029F09091F90698609093F9066093DA
:100F4000FD061092FE0690E49093FF068093000742
:100F5000805C8093010761E08091EE060E94490564
:100F60008091EF068F3F19F061E00E94490561E032
:100F70008091F0060E944905CAEED6E09E012A5EE5
:100F800036408091F90684FD0BC084E090E0219604
:100F90002817390744F461E08E810E944905EECF9D
:100FA00088E090E0F4CF8BE39DE00197F1F760E0FB
:100FB0008091EE060E941B0560E08091F0060E9481
:100FC0001B058091EF068F3F19F060E00E941B0522
:100FD0008091F90684FD34C063E08AEE96E00E94B9
:100FE0000807CBE4D6E4CE010197F1F763E08AEE7F
:100FF00096E00E9408072197F1F763E08AEE96E0F9
:101000000E94080783E592E00197F1F762E08AEE1B
:1010100096E00E9408078091F90680620E94880786
:1010200084E08093FA068CE00E9488070E948E0775
:1010300082E08093FB0686E0DF91CF910C948807D5
:1010400080620E9488078BE496E40197F1F7809113
:10105000F90680620E94880783E592E00197F1F724
:101060008091F90680620E948807D5CF643008F02D
:1010700063E09091FD06691710F06FEF690FE62F9E
:10108000F0E0E651F94F9489890F80680C94880745
:1010900041E00E94350781E090E00895FB01019056
:1010A0000020E9F73197AF01461B570BDC01ED91AA
:1010B000FC910280F381E02D19948F929F92AF9260
:1010C000BF92EF92FF920F931F93CF93DF93CDB711
:1010D000DEB7A1970FB6F894DEBF0FBECDBF7C017F
:1010E000FA01CB0119A2223008F42AE08E010F5D2B
:1010F0001F4F822E912CB12CA12CBF01A501940170
:101100000E94B51BF901CA016A300CF5605DD80177
:101110006E938D01232B242B252B79F790E080E013
:10112000109721F0BD01C7010E944E08A1960FB68D
:10113000F894DEBF0FBECDBFDF91CF911F910F910D
:10114000FF90EF90BF90AF909F908F900895695C53
:10115000DECF4F925F926F927F928F929F92AF926B
:10116000BF92CF92DF92EF92FF926B017C01AC01B4
:101170009B010E94A92066E672E0811126C046010B
:101180005701E894B7F82FEF3FEF4FE75FE7C5014E
:10119000B4010E94A92081110CC02FEF3FEF4FE74F
:1011A0005FE7C501B4010E945C1A6AE672E0181696
:1011B00064F02FEF3FEF4FE75FE4C701B6010E94F5
:1011C000B51E181694F46EE672E08AEE96E0FF9073
:1011D000EF90DF90CF90BF90AF909F908F907F90D7
:1011E0006F905F904F900C944E082FEF3FEF4FE7BA
:1011F0005FECC701B6010E945C1A87FDE4CF20E0D6
:1012000030E0A901C701B6010E945C1AB12CA12CE3
:1012100087FF0AC06DE28AEE96E00E947B055C01C2
:10122000F7FAF094F7F8F0942AE037ED43EA5BE33D
:10123000C701B6010E94F81B2B013C010E94941DBE
:101240006B017C010E94611A9B01AC01C301B201D8
:101250000E94F71B2B013C012AE0B701A6018AEE90
:1012600096E00E945D087C01EA0CFB1C6EE28AEEAF
:1012700096E00E947B05E80EF91E20E030E040E297
:1012800051E4C301B2010E94C21A2B013C010E9429
:10129000941D4B01B12CA12C2AE0B501A4018AEECA
:1012A00096E00E945D08E80EF91EC501B4010E9497
:1012B000611A9B01AC01C301B2010E94F71B20E03F
:1012C00030E040E251E40E94C21A0E94941DAB013A
:1012D00070E060E02AE08AEE96E00E945D088E0DE4
:1012E0009F1DFF90EF90DF90CF90BF90AF909F90A9
:1012F0008F907F906F905F904F9008950C944E0860
:10130000CF93DF93682F80E00E943608C0E1D0E0E1
:101310006FEC75E08AEE96E00E947E092197C1F796
:10132000DF91CF9108958F929F92AF92BF92CF920B
:10133000DF92EF92FF920F931F93CF93DF936B0196
:101340000397D1F063E080E00E94360883E090E0EC
:101350000E94800961E872E08AEE96E0DF91CF9109
:101360001F910F91FF90EF90DF90CF90BF90AF90C3
:101370009F908F900C947E09FB01808191810E9447
:1013800077187B018C01F601828193810E94771886
:101390004B01D82FC92FF601848195810E947718BF
:1013A0005B016C0194014D2F5C2FB701C8010E94B5
:1013B0005C1A87FD0EC09501A601B701C8010E9405
:1013C000B51E4701D02FC12F18161CF44501DC2D86
:1013D000CD2D63E080E00E94360883E090E00E941B
:1013E0008009B4018D2F9C2FDF91CF911F910F9118
:1013F000FF90EF90DF90CF90BF90AF909F908F9035
:101400000C94A908CF92DF92EF92FF92019791F08E
:1014100063E080E00E94360883E090E00E9480094B
:1014200063E972E08AEE96E0FF90EF90DF90CF9054
:101430000C947E09FB01808191810E9477186B01D9
:101440007C0120E030E0A9010E94B51E20E030E0E0
:1014500040E05FE387FD1AC0C701B6010E94F81B98
:101460000E948D1D0E94631A6B017C0163E080E085
:101470000E94360883E090E00E948009C701B6010F
:10148000FF90EF90DF90CF900C94A908C701B601B0
:101490000E94F71BE5CFCF92DF92EF92FF920F935E
:1014A0001F93CF93DF937B010297B1F063E080E05D
:1014B0000E94360883E090E00E94800960EA72E0B2
:1014C0008AEE96E0DF91CF911F910F91FF90EF9000
:1014D000DF90CF900C947E09FB01808191810E9466
:1014E00077188B01D82FC92FF701828193810E9431
:1014F00077186B017C019B01AC01B8018D2F9C2FEB
:101500000E94B51E18161CF08601DE2DCF2D63E05B
:1015100080E00E94360883E090E00E948009B801D4
:101520008D2F9C2FDF91CF911F910F91FF90EF9006
:10153000DF90CF900C94A908CF92DF92EF92FF92A8
:101540000F931F93CF93DF937B010297B1F063E07A
:1015500080E00E94360883E090E00E9480096CEAF7
:1015600072E08AEE96E0DF91CF911F910F91FF908C
:10157000EF90DF90CF900C947E09FB0180819181E8
:101580000E9477188B01D82FC92FF7018281938190
:101590000E9477186B017C019B01AC01B8018D2F73
:1015A0009C2F0E945C1A87FD03C08601DE2DCF2D83
:1015B00063E080E00E94360883E090E00E948009AA
:1015C000B8018D2F9C2FDF91CF911F910F91FF902C
:1015D000EF90DF90CF900C94A908CF92DF92EF921A
:1015E000FF92019791F063E080E00E94360883E06B
:1015F00090E00E94800968EB72E08AEE96E0FF902E
:10160000EF90DF90CF900C947E09FB018081918157
:101610000E9477186B017C0163E080E00E9436082D
:1016200083E090E00E94800920E030E044E353E44E
:10163000C701B6010E94C21A2BED3FE049E450E415
:101640000E94E11CFF90EF90DF90CF900C94A908CE
:10165000CF92DF92EF92FF92019791F063E080E0EA
:101660000E94360883E090E00E94800967EC72E0F7
:101670008AEE96E0FF90EF90DF90CF900C947E0979
:10168000FB01808191810E9477186B017C0163E0EE
:1016900080E00E94360883E090E00E9480092BEDF4
:1016A0003FE049E450E4C701B6010E94C21A20E0BD
:1016B00030E044E353E40E94E11CFF90EF90DF90A0
:1016C000CF900C94A908CF92DF92EF92FF920197EE
:1016D00091F063E080E00E94360883E090E00E9491
:1016E000800966ED72E08AEE96E0FF90EF90DF9061
:1016F000CF900C947E09FB01808191810E94771824
:101700006B017C0120E030E040E85FEB0E945C1A56
:1017100087FD0AC020E030E040E85FE3C701B60182
:101720000E94B51E18165CF463E080E00E94360843
:1017300083E090E00E94800962EE72E0D4CFC7019E
:10174000B6010E94E61B6B017C0163E080E00E9411
:10175000360883E090E00E948009C701B601FF903F
:10176000EF90DF90CF900C94A908CF92DF92EF9288
:10177000FF92019791F063E080E00E94360883E0D9
:1017800090E00E94800960EF72E08AEE96E0FF90A0
:10179000EF90DF90CF900C947E09FB0180819181C6
:1017A0000E9477186B017C0120E030E040E85FEB9D
:1017B0000E945C1A87FD0AC020E030E040E85FE349
:1017C000C701B6010E94B51E18165CF463E080E004
:1017D0000E94360883E090E00E9480096CEF72E07E
:1017E000D4CFC701B6010E94641C6B017C0163E089
:1017F00080E00E94360883E090E00E948009C701E3
:10180000B601FF90EF90DF90CF900C94A908CF9293
:10181000DF92EF92FF92CF93DF93EB010297A1F05B
:1018200063E080E00E94360883E090E00E94800937
:101830006AE073E08AEE96E0DF91CF91FF90EF903F
:10184000DF90CF900C947E09888199810E947B184B
:101850007C018A819B810E947B18BC01892B59F4F1
:1018600063E080E00E94360883E090E00E948009F7
:1018700069E173E0DFCFC7010E94C520EC0163E09E
:1018800080E00E94360883E090E00E9480096E01AB
:101890000D2E000CEE08FF082AE0B701A601D7FFC5
:1018A0000DC06DE28AEE96E00E947B054427552725
:1018B000BA014C195D096E097F092AE08AEE96E0AB
:1018C000DF91CF91FF90EF90DF90CF900C945D0867
:1018D000CF92DF92EF92FF92019791F063E080E068
:1018E0000E94360883E090E00E9480096BE273E07A
:1018F0008AEE96E0FF90EF90DF90CF900C947E09F7
:10190000FB01808191810E9477186B017C0120E0AE
:1019100030E0A9010E94B51E181624F0F7FAF094E1
:10192000F7F8F09463E080E00E94360883E090E0EE
:101930000E948009C701B601FF90EF90DF90CF9021
:101940000C94A908CF92DF92EF92FF92019791F049
:1019500063E080E00E94360883E090E00E94800906
:1019600066E373E08AEE96E0FF90EF90DF90CF9011
:101970000C947E09FB01808191810E9477186B0194
:101980007C0120E030E0A9010E945C1A18165CF08E
:1019900063E080E00E94360883E090E00E948009C6
:1019A00063E473E0DFCFC701B6010E94FC1E6B0148
:1019B0007C0163E080E00E94360883E090E00E94B2
:1019C0008009C701B601FF90EF90DF90CF900C9493
:1019D000A908CF92DF92EF92FF92019791F063E016
:1019E00080E00E94360883E090E00E94800962E572
:1019F00073E08AEE96E0FF90EF90DF90CF900C942A
:101A00007E09FB01808191810E9477186B017C0126
:101A100020E030E0A9010E945C1A18165CF063E037
:101A200080E00E94360883E090E00E9480096CE527
:101A300073E0DFCFC701B6010E940C1F6B017C0170
:101A400063E080E00E94360883E090E00E94800915
:101A5000C701B601FF90EF90DF90CF900C94A908DA
:101A6000CF92DF92EF92FF92019791F063E080E0D6
:101A70000E94360883E090E00E94800968E673E0E7
:101A80008AEE96E0FF90EF90DF90CF900C947E0965
:101A9000FB01808191810E9477186B017C0120E01D
:101AA00030E0A9010E945C1A87FF0BC063E080E070
:101AB0000E94360883E090E00E94800964E773E0AA
:101AC000DFCFC701B6010E940C206B017C0163E0EF
:101AD00080E00E94360883E090E00E948009C70100
:101AE000B601FF90EF90DF90CF900C94A9088F92F1
:101AF0009F92AF92BF92CF92DF92EF92FF92CF93DD
:101B0000DF93EB010297C1F063E080E00E943608AA
:101B100083E090E00E94800966E873E08AEE96E038
:101B2000DF91CF91FF90EF90DF90CF90BF90AF907B
:101B30009F908F900C947E09888199810E947718DC
:101B40004B015C018A819B810E9477186B017C01AB
:101B500020E030E0A9010E945C1A81110AC063E014
:101B60000E94360883E090E00E94800965E973E0F6
:101B7000D5CFA7019601C501B4010E94E11C6B01FC
:101B80007C0163E080E00E94360883E090E00E94E0
:101B90008009C701B601DF91CF91FF90EF90DF90F0
:101BA000CF90BF90AF909F908F900C94A908CF9248
:101BB000DF92EF92FF92CF93DF93EB010297A1F0B8
:101BC00063E080E00E94360883E090E00E94800994
:101BD00065EA73E08AEE96E0DF91CF91FF90EF9097
:101BE000DF90CF900C947E09888199810E947718AC
:101BF0006B017C018A819B810E9477189B01AC015B
:101C0000C701B6010E94C21A6B017C0163E080E04B
:101C10000E94360883E090E00E948009C701B60167
:101C2000DF91CF91FF90EF90DF90CF900C94A908B7
:101C3000CF92DF92EF92FF92CF93DF93EB01029767
:101C4000A1F063E080E00E94360883E090E00E940B
:101C5000800966EB73E08AEE96E0DF91CF91FF900A
:101C6000EF90DF90CF900C947E09888199810E943B
:101C700077186B017C018A819B810E9477189B01F8
:101C8000AC01C701B6010E94F71B6B017C0163E048
:101C900080E00E94360883E090E00E948009C7013E
:101CA000B601DF91CF91FF90EF90DF90CF900C9431
:101CB000A908CF92DF92EF92FF92CF93DF93EB01CF
:101CC0000297A1F063E080E00E94360883E090E094
:101CD0000E94800967EC73E08AEE96E0DF91CF9175
:101CE000FF90EF90DF90CF900C947E0988819981CE
:101CF0000E9477186B017C018A819B810E94771872
:101D00009B01AC01C701B6010E94F81B6B017C016D
:101D100063E080E00E94360883E090E00E94800942
:101D2000C701B601DF91CF91FF90EF90DF90CF9088
:101D30000C94A90862E080E00E94360882E090E0FE
:101D40000E94800962E080E00E94360863ED73E043
:101D50008AEE96E00E947E0962E081E00C943608EB
:101D600065ED73E08DE496E00E944E0863EE73E04B
:101D70008DE496E00E944E08EFE0F6E082E3DF019A
:101D80001D928A95E9F710924206109241060E9430
:101D90008E0760E080E00E94360866EE73E08AEE0F
:101DA00096E00C947E09CF93C82F6CEE73E08DE41F
:101DB00096E00E947E096C2F8DE496E00E947B05E0
:101DC00063EE73E08DE496E00E944E088091410638
:101DD0009091420681339105E4F49C012F5F3F4FBF
:101DE0003093420620934106815F994FFC01C083E6
:101DF000215F394FF90110820E948E0760E080E078
:101E00000E9436086FE076E08AEE96E0CF910C945F
:101E10007E09CF9108954F925F926F927F928F9239
:101E20009F92AF92BF92CF92DF92EF92FF92CF93A9
:101E3000DF9300D000D0CDB7DEB77E836D830597EA
:101E400011F163E080E00E94360883E090E00E9498
:101E5000800968EF73E08AEE96E026960FB6F89454
:101E6000DEBF0FBECDBFDF91CF91FF90EF90DF902F
:101E7000CF90BF90AF909F908F907F906F905F902A
:101E80004F900C947E09ED81FE81808191810E94AA
:101E900099186B017C01ED81FE81828193810E9402
:101EA00099182B013C01ED81FE81848195810E946E
:101EB000991869837A838B839C83ED81FE81868167
:101EC00097810E9499184B015C01ED81FE8180850C
:101ED00091850E949918A701960124193509460990
:101EE0005709681979098A099B090E94B520298137
:101EF0003A814B815C8124193509460957090E94B2
:101F0000831B820E931EA41EB51E63E080E00E9418
:101F1000360883E090E00E9480092AE0B501A40120
:101F2000B7FE0DC06DE28AEE96E00E947B05442765
:101F30005527BA01481959096A097B092AE08AEE2E
:101F400096E026960FB6F894DEBF0FBECDBFDF91A8
:101F5000CF91FF90EF90DF90CF90BF90AF909F9088
:101F60008F907F906F905F904F900C945D088F9250
:101F70009F92AF92BF92CF92DF92EF92FF92CF9358
:101F8000DF93EB010297C1F063E080E00E94360826
:101F900083E090E00E94800964E074E08AEE96E0BD
:101FA000DF91CF91FF90EF90DF90CF90BF90AF90F7
:101FB0009F908F900C947E09888199810E94991836
:101FC0006B017C018A819B810E949918C616D706F5
:101FD000E806F90684F44B015C018C189D08AE08F4
:101FE000BF080E941F18A50194010E94831BC60E02
:101FF000D71EE81EF91E63E080E00E94360883E0E9
:1020000090E00E9480092AE0B701A601F7FE0DC00A
:102010006DE28AEE96E00E947B0544275527BA01BF
:102020004C195D096E097F092AE08AEE96E0DF917E
:10203000CF91FF90EF90DF90CF90BF90AF909F90A7
:102040008F900C945D08CF92DF92EF92FF920197F0
:1020500091F063E080E00E94360883E090E00E9407
:10206000800961E174E08AEE96E0FF90EF90DF90E6
:10207000CF900C947E09FB01808191810E9477189A
:102080000E9450206B017C0163E080E00E943608D2
:1020900083E090E00E948009C701B601FF90EF90B5
:1020A000DF90CF900C94A908CF92DF92EF92FF922D
:1020B000019791F063E080E00E94360883E090E0B1
:1020C0000E9480096DE174E08AEE96E0FF90EF9047
:1020D000DF90CF900C947E09FB01808191810E945A
:1020E00077180E94C51C6B017C0163E080E00E94B0
:1020F000360883E090E00E948009C701B601FF9096
:10210000EF90DF90CF900C94A908CF92DF92EF92DE
:10211000FF92019791F063E080E00E94360883E02F
:1021200090E00E94800969E274E08AEE96E0FF90F8
:10213000EF90DF90CF900C947E09FB01808191811C
:102140000E9477180E94D81F6B017C0163E080E039
:102150000E94360883E090E00E948009C701B60122
:10216000FF90EF90DF90CF900C94A908CF92DF9270
:10217000EF92FF92019791F063E080E00E943608B1
:1021800083E090E00E94800965E374E08AEE96E0C7
:10219000FF90EF90DF90CF900C947E09FB0180813F
:1021A00091810E9477180E947F1C6B017C0163E083
:1021B00080E00E94360883E090E00E948009C70119
:1021C000B601FF90EF90DF90CF900C94A908CF92CA
:1021D000DF92EF92FF92019791F063E080E00E941E
:1021E000360883E090E00E94800961E474E08AEEA2
:1021F00096E0FF90EF90DF90CF900C947E09FB016A
:10220000808191810E9477180E945B1D6B017C0187
:1022100063E080E00E94360883E090E00E9480093D
:10222000C701B601FF90EF90DF90CF900C94A90802
:10223000CF92DF92EF92FF92019791F063E080E0FE
:102240000E94360883E090E00E9480096CE474E00C
:102250008AEE96E0FF90EF90DF90CF900C947E098D
:10226000FB01808191810E9477180E94C31D6B0140
:102270007C0163E080E00E94360883E090E00E94E9
:102280008009C701B601FF90EF90DF90CF900C94CA
:10229000A908CF92DF92EF92FF92019791F063E04D
:1022A00080E00E94360883E090E00E94800969E5A2
:1022B00074E08AEE96E0FF90EF90DF90CF900C9460
:1022C0007E09FB01808191810E9477180E94AE1CDB
:1022D0006B017C0163E080E00E94360883E090E0BF
:1022E0000E948009C701B601FF90EF90DF90CF9068
:1022F0000C94A908CF92DF92EF92FF92019791F090
:1023000063E080E00E94360883E090E00E9480094C
:1023100066E374E08AEE96E0FF90EF90DF90CF9056
:102320000C947E09FB01808191810E9477180E94A4
:1023300084206B017C0163E080E00E94360883E02A
:1023400090E00E948009C701B601FF90EF90DF90F6
:10235000CF900C94A908CF92DF92EF92FF92019751
:1023600091F063E080E00E94360883E090E00E94F4
:10237000800967ED72E08AEE96E0FF90EF90DF90C3
:10238000CF900C947E09FB01808191810E94771887
:102390000E94DC1C6B017C0163E080E00E94360837
:1023A00083E090E00E948009C701B601FF90EF90A2
:1023B000DF90CF900C94A908CF92DF92EF92FF921A
:1023C000019791F063E080E00E94360883E090E09E
:1023D0000E94800961EF72E08AEE96E0FF90EF9034
:1023E000DF90CF900C947E09FB01808191810E9447
:1023F00077180E94FE1F6B017C0163E080E00E9461
:10240000360883E090E00E948009C701B601FF9082
:10241000EF90DF90CF900C94A908CF92DF92EF92CB
:10242000FF92CF93DF93EB010297A1F063E080E08E
:102430000E94360883E090E00E94800965E674E01F
:102440008AEE96E0DF91CF91FF90EF90DF90CF90F2
:102450000C947E09888199810E9477186B017C0118
:102460008A819B810E9477189B01AC01C701B6014C
:102470000E94881F6B017C0163E080E00E943608A7
:1024800083E090E00E948009C701B601DF91CF91FF
:10249000FF90EF90DF90CF900C94A9081F920F92BD
:1024A0000FB60F9211242F933F938F939F93AF9367
:1024B000BF938091490690914A06A0914B06B09136
:1024C0004C063091480623E0230F2D3758F501962E
:1024D000A11DB11D209348068093490690934A069A
:1024E000A0934B06B0934C0680914406909145060C
:1024F000A0914606B09147060196A11DB11D80939B
:10250000440690934506A0934606B0934706BF91B4
:10251000AF919F918F913F912F910F900FBE0F9090
:102520001F90189526E8230F0296A11DB11DD2CF4A
:102530001F920F920FB60F9211240BB60F922F938A
:102540003F934F935F936F937F938F939F93AF933B
:10255000BF93EF93FF93E0910E02F0910F02199554
:10256000FF91EF91BF91AF919F918F917F916F916B
:102570005F914F913F912F910F900BBE0F900FBE27
:102580000F901F9018951F920F920FB60F92112463
:102590000BB60F922F933F934F935F936F937F935D
:1025A0008F939F93AF93BF93EF93FF93E0910C02B0
:1025B000F0910D021995FF91EF91BF91AF919F910D
:1025C0008F917F916F915F914F913F912F910F90DC
:1025D0000BBE0F900FBE0F901F9018951F920F9279
:1025E0000FB60F9211240BB60F922F933F934F9378
:1025F0005F936F937F938F939F93AF93BF93EF936B
:10260000FF93E0910202F09103021995FF91EF917F
:10261000BF91AF919F918F917F916F915F914F91FA
:102620003F912F910F900BBE0F900FBE0F901F90F8
:1026300018951F920F920FB60F9211240BB60F929E
:102640002F933F934F935F936F937F938F939F93BA
:10265000AF93BF93EF93FF93E0910002F0910102DB
:102660001995FF91EF91BF91AF919F918F917F91BC
:102670006F915F914F913F912F910F900BBE0F90F3
:102680000FBE0F901F9018951F920F920FB60F92CA
:1026900011240BB60F922F933F934F935F936F9339
:1026A0007F938F939F93AF93BF93EF93FF93E091AB
:1026B0000A02F0910B021995FF91EF91BF91AF9132
:1026C0009F918F917F916F915F914F913F912F914A
:1026D0000F900BBE0F900FBE0F901F9018951F927A
:1026E0000F920FB60F9211240BB60F922F933F93B8
:1026F0004F935F936F937F938F939F93AF93BF930A
:10270000EF93FF93E0910802F09109021995FF9170
:10271000EF91BF91AF919F918F917F916F915F9159
:102720004F913F912F910F900BBE0F900FBE0F90C6
:102730001F9018951F920F920FB60F9211240BB68F
:102740000F922F933F934F935F936F937F938F934A
:102750009F93AF93BF93EF93FF93E0910602F091A5
:1027600007021995FF91EF91BF91AF919F918F91C2
:102770007F916F915F914F913F912F910F900BBE81
:102780000F900FBE0F901F9018951F920F920FB6CB
:102790000F9211240BB60F922F933F934F935F9399
:1027A0006F937F938F939F93AF93BF93EF93FF9319
:1027B000E0910402F09105021995FF91EF91BF910C
:1027C000AF919F918F917F916F915F914F913F91C9
:1027D0002F910F900BBE0F900FBE0F901F9018956A
:1027E0001F920F920FB60F9211240BB60F922F93D8
:1027F0003F934F935F936F937F938F939F93AF9389
:10280000BF93EF93FF938DE496E00E94EA03FF915C
:10281000EF91BF91AF919F918F917F916F915F9158
:102820004F913F912F910F900BBE0F900FBE0F90C5
:102830001F9018951F920F920FB60F9211240BB68E
:102840000F922F938F939F93EF93FF93E0915D06E9
:10285000F0915E068081E0916306F091640682FD4E
:102860001DC09081809166068F5F8F7320916706EF
:10287000821741F0E0916606F0E0E35BF94F958F37
:1028800080936606FF91EF919F918F912F910F900A
:102890000BBE0F900FBE0F901F9018958081F2CF46
:1028A0008091D2059091D3058F3F910509F034F4C2
:1028B00001969093D3058093D205089563E080E05C
:1028C0000E94360883E090E00E94800962E772E08F
:1028D0008AEE96E00C947E09EDE4F6E01382128213
:1028E00088EE93E0A0E0B0E084839583A683B7836D
:1028F0008CE492E09183808385EC90E095878487D7
:1029000084EC90E09787868780EC90E0918B808BB9
:1029100081EC90E0938B828B82EC90E0958B848BA2
:1029200086EC90E0978B868B118E128E138E148E10
:102930006BE07FE083E794E00E94501463E979E064
:102940008CE794E00E94501467EB7FE08BE894E002
:102950000E94501462E07AE087E994E00E945014EB
:102960006BE47AE082EA94E00E9450146CE97AE029
:102970008AEA94E00E9450146DEE7AE082EB94E0D3
:102980000E94501468E27BE083EC94E00E945014B3
:1029900063E270E184ED94E00E94501464E570E11C
:1029A00089ED94E00E94501465E870E18EED94E0AA
:1029B0000E94501466EB70E183EE94E00E94501484
:1029C00063E67BE08EEE94E00E94501465EB7BE0C2
:1029D00088EF94E00E94501467EE70E180E095E08B
:1029E0000E94501467E07CE08CE095E00E94501457
:1029F00068E171E183E195E00E94501469E471E1BE
:102A00008EE195E00E94501468E67CE088E295E053
:102A10000E94501462EA7CE086E395E00E94501424
:102A200069EE7CE080E495E00E9450146AE771E171
:102A300086EE94E00E9450146BEA71E181EF94E01D
:102A40000E9450146CED71E18BEF94E00E945014E1
:102A500060E37DE08BE495E00E9450146DE072E14C
:102A600086E595E00E94501467E77DE08CE595E0EF
:102A70000E94501467ED7DE083E695E00E945014BB
:102A800068E17EE08CE695E00E94501469E57EE006
:102A900085E795E00E945014EAEEF6E01382128278
:102AA0008EE592E09183808388E084838FEF858335
:102AB00089E0868384E0878385E0808786E081875C
:102AC00087E082871386148615861686178661E04E
:102AD00080E10C949607789484B5826084BD84B5B7
:102AE000816084BD85B5826085BD85B5816085BD09
:102AF00080916E00816080936E00109281008091C1
:102B00008100826080938100809181008160809348
:102B10008100809180008160809380008091B1006D
:102B200084608093B1008091B00081608093B00098
:102B300080919100826080939100809191008160EA
:102B400080939100809190008160809390008091AB
:102B5000A10082608093A1008091A1008160809398
:102B6000A1008091A00081608093A000809121014C
:102B700082608093210180912101816080932101F5
:102B80008091200181608093200180917A0084608F
:102B900080937A0080917A00826080937A0080919D
:102BA0007A00816080937A0080917A0080688093B7
:102BB0007A001092C10064E084E10E94960782E0EE
:102BC00080930E0683E594E090930D0680930C06A7
:102BD00062E083E00E94490562E082E00E944905CC
:102BE00010920B0610920A0681E696E0909303027B
:102BF0008093020280916A00837F886080936A00DC
:102C0000ED9A0E948E0769E775E08AEE96E00E94D1
:102C10007E0961E080E00E94360862E875E08AEE95
:102C200096E00E947E090E949A0E62E975E08AEEA3
:102C300096E00E947E09CFE0D6E012E301E00E9418
:102C40004D06882389F10E942A0620914106309181
:102C500042068D30E1F5215F394FF901108263E0C2
:102C600080E00E94360883E090E00E94800963E0E3
:102C700080E00E9436086FE975E08AEE96E00E94D7
:102C80007E091092420610924106FE01812F119298
:102C90008A95E9F763E080E00E94360883E090E0DF
:102CA0000E9480090E949A0E0E944D06882361F0BE
:102CB0000E942A067C018F3F910531F080EFE816D3
:102CC000F104C9F5109243060E948304B8CF8F37F0
:102CD000F1F41216130644F7C901019790934206C6
:102CE00080934106FC01E15FF94F108262E08F5F43
:102CF0000E9436086FEC75E08AEE96E00E947E092D
:102D00008091410662E08F5F0E943608CDCF21336B
:102D1000310554F6A9014F5F5F4F5093420640932F
:102D20004106215F394FF9018083682F8AEE96E0D2
:102D30000E947B05B9CFF7013297E937F10508F01A
:102D40001CC18827E955F94E8F4F0C94D9202017C4
:102D500024172B172D172F17311733173517371740
:102D600039173B173D173F1769176B176D176F170B
:102D7000711773177517771779177B177D177F17DB
:102D8000811783176416861788178A178C178E1772
:102D9000901792179417961798179A179C179E17C3
:102DA0006416A117A317A517A717A917AB17AD1777
:102DB000AF17B117B3179E17B5176416B717641678
:102DC0006416641664166416641664166416641633
:102DD00064166416641664163317351737173B17D5
:102DE0002D172F173117B9172017BB172B173917A6
:102DF000B117BD17BD17BD17641664168317641687
:102E0000B3179E17B5176416BD17BD17BD17BD17AD
:102E1000BD17BD17BD179C17BD17BD172017BD17D0
:102E20002D173317BD17BD17BD176416641664162A
:102E300064166416641664166416BD176416641668
:102E400081E30E94D30E40CF80914306882309F48A
:102E500092C080E4F6CF83E3F4CF84E3F2CF85E33E
:102E6000F0CF86E3EECF87E3ECCF88E3EACF89E3C8
:102E7000E8CF80E3E6CF8DE2E4CF8DE3E2CF6CEAEA
:102E800075E08DE496E00E944E0863EE73E08DE4F9
:102E900096E00E944E0880914106909142061816D5
:102EA00019060CF011CF01979093420680934106CA
:102EB000815F994FFC0110820E948E0760E080E0E4
:102EC0000E9436086FE076E08AEE96E00E947E0966
:102ED000FBCE89E0B6CF81E7B4CF87E7B2CF85E6F6
:102EE000B0CF82E7AECF84E7ACCF89E7AACF85E742
:102EF000A8CF89E6A6CF8FE6A4CF80E7A2CF8BE547
:102F0000A0CF8DE59ECF0E94B00EDECE81E699CF98
:102F100083E797CF84E695CF86E693CF87E691CF78
:102F200088E68FCF8AE68DCF8BE68BCF8CE689CF74
:102F30008BE387CF87E285CF80E683CF009343067C
:102F4000C3CE8AE77ECF88E77CCF83E67ACF86E759
:102F500078CF82E676CF8EE674CF8DE672CF8CE2A4
:102F600070CF8EE26ECF8FE26CCF8AE26ACF80E2C2
:102F700068CF8BE266CF82E364CF6EEB75E08DE4C1
:102F800096E00E947E09A701FF0C660B770B20E1FB
:102F90008DE496E00E945D0863EE73E08DE496E0B8
:102FA0000E944E0891CE8F929F92AF92BF92CF9285
:102FB000DF92EF92FF92CF93DF93EC0168817981EA
:102FC0008A819B81611571058105910521F464E277
:102FD00079ED8BE597E02DE133EF41E050E00E9481
:102FE000831B49015A019B01AC01A7EAB1E40E948D
:102FF000A21B6B017C01ACEEB4EFA50194010E9411
:10300000B01BC60ED71EE81EF91EF7FE06C081E0F3
:10301000C81AD108E10880E8F80AC882D982EA8291
:10302000FB82C701B6019F77DF91CF91FF90EF90B0
:10303000DF90CF90BF90AF909F908F9008958F9228
:103040009F92AF92BF92CF92DF92EF92FF926091E8
:103050001002709111028091120290911302611579
:1030600071058105910521F464E279ED8BE597E026
:103070002DE133EF41E050E00E94831B49015A01EA
:103080009B01AC01A7EAB1E40E94A21B6B017C0189
:10309000ACEEB4EFA50194010E94B01BC60ED71E82
:1030A000E81EF91EF7FE06C081E0C81AD108E10843
:1030B00080E8F80AC0921002D0921102E092120247
:1030C000F0921302C701B6019F77FF90EF90DF9057
:1030D000CF90BF90AF909F908F9008956093100213
:1030E0007093110280931202909313020895662741
:1030F00077270C94DD18FC0188279927E894219103
:103100002032E9F3293010F02E30C8F32B3241F091
:103110002D3239F4689404C00E94D518820F911D95
:10312000219120532A30C0F31EF4909581959F4F32
:1031300008951F93FC0199278827BC01E8941191F9
:103140001032E9F3193010F01E30C8F31B3251F081
:103150001D3249F4689406C00E94C018610F711DA9
:10316000811D911D119110531A30B0F33EF49095CA
:103170008095709561957F4F8F4F9F4F1F91089558
:10318000592F482F372F262F660F771F881F991F1B
:10319000660F771F881F991F620F731F841F951F6B
:1031A000660F771F881F991F08957AE0979F902DCB
:1031B000879F802D910D112408958F929F92AF9239
:1031C000BF92CF92DF92EF92FF920F931F93CF9314
:1031D000DF935C017B016115710519F0DB018D93B3
:1031E0009C9385010F5F1F4FF501D0818D2F90E0DB
:1031F0000E943B1A6C01892BB9F5DD32B9F50F5FDE
:103200001F4FD5011196DC91C1E05801F1E0AF1AD2
:10321000B10843E050E066E074E0C5010E94441A42
:10322000892B69F5680182E0C80ED11C45E050E0A9
:1032300061E074E0C6010E94441A892B21F4680100
:1032400097E0C90ED11CE114F10419F0D701CD9219
:10325000DC9260E070E080E89FEFC111FFC060E0A9
:1032600070E080E89FE7FAC05801BBCFDB3229F459
:1032700085010E5F1F4FF501D181C0E0C6CF43E04D
:1032800050E06EEF73E0C5010E94441A892BE9F00B
:10329000F80110E000E020E030E0A9015F01B0EDAE
:1032A0008B2E8D0E89E08815C8F19C2E689491F8BC
:1032B0008C2F8870C2FF16C0811102C00F5F1F4F94
:1032C0003196D501DC91C92DE9CFE114F10429F043
:1032D0000E5F1F4FF7011183008360E070E080EC08
:1032E0009FE7BCC0882311F001501109A5E0B0E0B0
:1032F0000E94A21B9B01AC01220F331F441F551FCC
:10330000280D311D411D511D283999E939074907FB
:1033100099E15907A8F2C6609C2ED2CFAEEF8A126F
:1033200006C0C3FD3CC09C2E689493F8C9CFDF7DD6
:10333000D534A9F580818D3239F4C061DF01129650
:10334000818162E070E006C0DF018B32C1F311962B
:1033500061E070E080535D01A61AB70A8A30F8F484
:10336000E0E8CE16ECE0DE065CF4B601660F771FEF
:10337000660F771FC60ED71ECC0CDD1CC80ED11CE5
:103380005D01FFEFAF1ABF0A8C9180538A30A8F11C
:10339000C4FF03C0D194C194D1080C0D1D1DC1FF01
:1033A00009C0E114F10431F081E0A81AB108D70195
:1033B000AD92BC92CA01B9010E94611AC370C330B8
:1033C00009F490584B015C0120E030E0A9010E9413
:1033D0005C1A882309F440C0C5E3D4E017FF05C098
:1033E000119501951109CDE1D4E06E01B8E1CB1A38
:1033F000D10880E2E82EF12C0FC0D501B1CFFE013B
:1034000025913591459154910E191F09C501B401BB
:103410000E94C21A4B015C01D501C4010E151F05A3
:1034200074F72497F594E794CC16DD06A9F78A2F54
:10343000880F8B2F881F8F3F49F020E030E0A901D3
:10344000C501B4010E945C1A811106C082E290E0BD
:103450009093030780930207C501B401DF91CF91D8
:103460001F910F91FF90EF90DF90CF90BF90AF90A2
:103470009F908F90089591110C942F1B803219F01A
:1034800089508550C8F70895FB01DC014150504038
:1034900088F08D9181341CF08B350CF4805E659141
:1034A00061341CF06B350CF4605E861B611171F3A6
:1034B000990B0895881BFCCF0E949E1A08F481E0A6
:1034C0000895E89409C097FB3EF490958095709517
:1034D00061957F4F8F4F9F4F9923A9F0F92F96E960
:1034E000BB279395F695879577956795B795F111D5
:1034F000F8CFFAF4BB0F11F460FF1BC06F5F7F4F72
:103500008F4F9F4F16C0882311F096E911C0772383
:1035100021F09EE8872F762F05C0662371F096E88C
:10352000862F70E060E02AF09A95660F771F881F5B
:10353000DAF7880F9695879597F90895990F0008FF
:10354000550FAA0BE0E8FEEF16161706E807F90775
:10355000C0F012161306E407F50798F0621B730B10
:10356000840B950B39F40A2661F0232B242B252B91
:1035700021F408950A2609F4A140A6958FEF811D34
:10358000811D08950E94D51A0C94491B0E943B1B73
:1035900038F00E94421B20F0952311F00C94321B4E
:1035A0000C94381B11240C947D1B0E945A1B70F341
:1035B000959FC1F3950F50E0551F629FF001729FD8
:1035C000BB27F00DB11D639FAA27F00DB11DAA1FE7
:1035D000649F6627B00DA11D661F829F2227B00D34
:1035E000A11D621F739FB00DA11D621F839FA00DBF
:1035F000611D221F749F3327A00D611D231F849F0F
:10360000600D211D822F762F6A2F11249F57504065
:103610009AF0F1F088234AF0EE0FFF1FBB1F661FE0
:10362000771F881F91505040A9F79E3F510580F0A9
:103630000C94321B0C947D1B5F3FE4F3983ED4F353
:10364000869577956795B795F795E7959F5FC1F74D
:10365000FE2B880F911D9695879597F908959927C8
:103660008827089597F99F6780E870E060E00895E3
:103670009FEF80EC089500240A941616170618068A
:103680000906089500240A94121613061406050666
:103690000895092E0394000C11F4882352F0BB0FF7
:1036A00040F4BF2B11F460FF04C06F5F7F4F8F4F5A
:1036B0009F4F089557FD9058440F551F59F05F3F95
:1036C00071F04795880F97FB991F61F09F3F79F044
:1036D00087950895121613061406551FF2CF4695C6
:1036E000F1DF08C0161617061806991FF1CF869548
:1036F0007105610508940895E894BB27662777272C
:10370000CB0197F90895052E97FB1EF400940E94B3
:103710009A1B57FD07D00E94B51B07FC03D04EF43F
:103720000C949A1B50954095309521953F4F4F4FE3
:103730005F4F089590958095709561957F4F8F4F5D
:103740009F4F08950E94D71BA59F900DB49F900D89
:10375000A49F800D911D11240895B7FF0C94A21B06
:103760000E94A21B821B930B0895A1E21A2EAA1B92
:10377000BB1BFD010DC0AA1FBB1FEE1FFF1FA21721
:10378000B307E407F50720F0A21BB30BE40BF50B1E
:10379000661F771F881F991F1A9469F760957095A7
:1037A000809590959B01AC01BD01CF010895A29F2A
:1037B000B001B39FC001A39F700D811D1124911D05
:1037C000B29F700D811D1124911D08959F939F77C5
:1037D0000E94DA1D0F90002042F49058A2EA2AEDD0
:1037E0003FE049E450E40E940F1C0C94491B5058E0
:1037F000BB27AA270E940F1C0C94491B0E943B1B4D
:1038000038F00E94421B20F039F49F3F19F426F44F
:103810000C94381B0EF4E095E7FB0C94321BE92F57
:103820000E945A1B58F3BA1762077307840795075B
:1038300020F079F4A6F50C947C1B0EF4E0950B2E89
:10384000BA2FA02D0B01B90190010C01CA01A001F2
:103850001124FF27591B99F0593F50F4503E68F14D
:103860001A16F040A22F232F342F4427585FF3CF8E
:10387000469537952795A795F0405395C9F77EF45F
:103880001F16BA0B620B730B840BBAF09150A1F0A8
:10389000FF0FBB1F661F771F881FC2F70EC0BA0F2E
:1038A000621F731F841F48F4879577956795B795B6
:1038B000F7959E3F08F0B0CF9395880F08F09927B1
:1038C000EE0F9795879508959F939F77EEE389373D
:1038D0009E0728F4E4EEF0E00E944A1E0CC00E940D
:1038E000DA1D9058A2EA2AED3FE049EC5FE30E941E
:1038F0000F1C0E94491B0F9007FC90580895DF93FE
:10390000DD27B92FBF7740E85FE316161706480793
:103910005B0718F4D92F0E94BA1E9F938F937F9351
:103920006F930E944C20E8EFF0E00E94231E0E945B
:10393000491B2F913F914F915F910E94D51ADD2332
:1039400051F09058A2EA2AED3FE049EC5FE3D078CD
:103950005D270E940F1CDF910C94491B0E949D1E45
:1039600090F09F3748F4911116F40C947D1B60E0A1
:1039700070E080E89FE3089526F01B16611D711D1D
:10398000811D0C94FA1D0C94151E90680E945B1DFD
:103990004FEF5FEF0E94C61E9F938F937F936F93AD
:1039A00042E050E00E94C61E0E94BA1E2F913F9135
:1039B0004F915F910C94F81B0E94601EE3950C944C
:1039C000891E0E94F51C0C94491B0E94421B58F052
:1039D0000E943B1B40F029F45F3F29F00C94321BFE
:1039E00051110C947D1B0C94381B0E945A1B68F3D8
:1039F0009923B1F3552391F3951B550BBB27AA27A8
:103A000062177307840738F09F5F5F4F220F331FE1
:103A1000441FAA1FA9F335D00E2E3AF0E0E832D0A9
:103A200091505040E695001CCAF72BD0FE2F29D0AC
:103A3000660F771F881FBB1F261737074807AB077E
:103A4000B0E809F0BB0B802DBF01FF2793585F4FF3
:103A50003AF09E3F510578F00C94321B0C947D1B7C
:103A60005F3FE4F3983ED4F3869577956795B795D5
:103A7000F7959F5FC9F7880F911D9695879597F9E0
:103A80000895E1E0660F771F881FBB1F6217730759
:103A90008407BA0720F0621B730B840BBA0BEE1F6E
:103AA00088F7E095089529F416F00C94321B0C94D5
:103AB0007C1B0C94381B0E94621BA8F39638A0F75D
:103AC00007F80F92E8942BE33AEA48EB5FE70E948D
:103AD000D81A0F920F920F924DB75EB70F920E94B5
:103AE000541FE5E2F1E00E94231E4F915F91EF9198
:103AF000FF91E595EE1FFF1F49F0FE57E068442750
:103B0000EE0F441FFA95E1F74195550B0E94C61E32
:103B10000F9007FE0C94BA1E08950E94941D68949D
:103B2000B1110C947D1B08950E94621B88F09F5771
:103B300098F0B92F9927B751B0F0E1F0660F771FD1
:103B4000881F991F1AF0BA95C9F714C0B13091F0C7
:103B50000E947C1BB1E008950C947C1B672F782F8A
:103B60008827B85F39F0B93FCCF38695779567958C
:103B7000B395D9F73EF490958095709561957F4FF8
:103B80008F4F9F4F08950E949D1E90F09F3748F4DD
:103B9000911116F00C947D1B60E070E080E89FEBC3
:103BA000089526F41B16611D711D811D0C94FA1DCC
:103BB0000C94151EDF93CF931F930F938B01EC0191
:103BC000EDE4F1E00E94231E0E94491B9801AE0122
:103BD0008B01EC0160E070E080E89FE30E94F71B3E
:103BE0000E940C209801AE010F911F91CF91DF919F
:103BF0000C94D51A882371F4772321F09850872BE1
:103C0000762F07C0662311F499270DC09051862B9B
:103C100070E060E02AF09A95660F771F881FDAF748
:103C2000880F9695879597F908959F3F31F09150A9
:103C300020F4879577956795B795880F911D969590
:103C4000879597F90895DF93CF931F930F93FF9272
:103C5000EF92DF927B018C01689406C0DA2EEF01AF
:103C60000E94D51AFE01E894A591259135914591C0
:103C70005591A6F3EF010E940F1CFE019701A801C8
:103C8000DA9469F7DF90EF90FF900F911F91CF9139
:103C9000DF9108959F938F937F936F93FF93EF939B
:103CA0009B01AC010E94C21AEF91FF910E94231E5A
:103CB0002F913F914F915F910C94C21A0C94381B35
:103CC0000E94621BD8F3E894E0E0BB279F57F0F016
:103CD0002AED3FE049EC06C0EE0FBB0F661F771FD1
:103CE000881F28F0B23A62077307840728F0B25A97
:103CF000620B730B840BE3959A9572F7803830F45E
:103D00009A95BB0F661F771F881FD2F790480C94B7
:103D1000171EEF93E0FF07C0A2EA2AED3FE049EC4F
:103D20005FEB0E940F1C0E94491B0F90039401FC43
:103D30009058E5E7F1E00C944A1E0E94621BA0F047
:103D4000BEE7B91788F4BB279F3860F41616B11D7B
:103D5000672F782F8827985FF7CF86957795679597
:103D6000B11D93959639C8F308950E949E1A08F4E0
:103D70008FEF08959B01AC0160E070E080E89FE365
:103D80000C94E11C0C94321B0C94151E0E94621BB7
:103D9000D8F39923C9F3940F511DA3F391505040C8
:103DA00094F059F0882332F0660F771F881F9150E6
:103DB0005040C1F79E3F51052CF7880F911D9695F5
:103DC000879597F908955F3FACF0983E9CF0BB272C
:103DD000869577956795B79508F4B1609395C1F787
:103DE000BB0F58F711F460FFE8CF6F5F7F4F8F4F25
:103DF0009F4FE3CF0C947D1B0E940C1F29ED3BE5E8
:103E00004EED5EE30C94C21A16F00C94151E0C9441
:103E1000381B68940C94321B0E94621BA8F39923F0
:103E2000C1F3AEF3DF93CF931F930F93FF92C92F8C
:103E3000DD2788232AF02197660F771F881FDAF77E
:103E400020E030E040E85FEB9FE3883920F0803EDF
:103E500038F021968F770E94F81BE3E9F1E004C067
:103E60000E94F81BE0ECF1E00E94231E8B01BE01D2
:103E7000EC01FB2E6F5771097595771F880B990B15
:103E80000E94631A28E132E741E35FE30E94D51AFA
:103E9000AF2D9801AE01FF900F911F91CF91DF914F
:103EA0000E940F1C0C94491BFA01DC01AA0FBB1FD6
:103EB0009B01AC01BF5728F42227332744275078B1
:103EC00020C0B75190F4AB2F002446953795279525
:103ED000011CA395D2F3002071F0220F331F441F61
:103EE000B395DAF30ED00C94F71B61307105A0E89E
:103EF0008A07B94630F49B01AC01662777278827EB
:103F00009078309621F02083318342835383089543
:103F1000FA01EE0FFF1F309621053105A1F1611561
:103F2000710561F48038BFE39B0749F168949038CC
:103F3000810561F08038BFEF9B0741F099234AF576
:103F4000FF3FE1053105210519F1E8940894E79553
:103F5000D901AA2329F4AB2FBE2FF85FD0F310C0EC
:103F6000FF5F70F4A695E0F7F73950F019F0FF3ACB
:103F700038F49F779F930DD00F9007FC90580895C9
:103F800046F00C94381B60E070E080E89FE30895F1
:103F90004FE79F775F934F933F932F930E940C1FA0
:103FA0002F913F914F915F910E94C21A0C945B1D1B
:103FB0009F939F77FEE3803A9F0728F4EDEEF1E0B0
:103FC0000E944A1E17C090680E945B1D4FEF5FEF72
:103FD0000E94C61E9F938F937F936F9342E050E0A1
:103FE0000E94C61E0E94BA1E2F913F914F915F9171
:103FF0000E94F71B0F9007FC906808959F930E9402
:10400000601E0F9007FCEE5F0C94891E19F416F4E5
:104010000C94381B0C94151E0E94621BB8F3992354
:10402000C9F3B6F39F57550B87FF0E94AE200024BB
:10403000A0E640EA900180585695979528F4805C58
:10404000660F771F881F20F026173707480730F4C0
:10405000621B730B840B202931294A2BA6951794D8
:104060000794202531254A2758F7660F771F881FA8
:1040700020F026173707480730F4620B730B840BC8
:10408000200D311D411DA09581F7B901842F915854
:10409000880F9695879508959B01AC010C94C21AE0
:1040A0009F939F77FEE380319F0728F4ECEFF1E0C8
:1040B0000E944A1E25C0906841E050E00E94C61E42
:1040C0000E945B1D9F938F937F936F9320E030E05E
:1040D00040E85FE30E94F81B2F913F914F915F9161
:1040E0009F938F937F936F9360E070E080E89FE3EE
:1040F0000E94F71B2F913F914F915F910E94E11C0D
:104100000F9007FC90580895DF93D92F0E94601EEE
:10411000E695D7952AED3FE049E45FE3B33A6207BD
:10412000730784079507D7953AF0A2EA49EC90689F
:104130000E940F1C0E94491BEBE0F2E00E944A1E05
:10414000DD0F13F00E94BA1EDD0F0BF49058DF91C3
:1041500008950E949E1A880B990B08959150504023
:10416000660F771F881FD2F70895DB018F939F9307
:104170000E94A21BBF91AF91A29F800D911DA39F92
:10418000900DB29F900D1124089597FB072E16F401
:10419000009407D077FD09D00E94E12007FC05D0EC
:1041A0003EF4909581959F4F0895709561957F4F4E
:1041B0000895EE0FFF1F881F8BBF0790F691E02D2B
:1041C0001994AA1BBB1B51E107C0AA1FBB1FA6174E
:1041D000B70710F0A61BB70B881F991F5A95A9F7B0
:0E41E00080959095BC01CD010895F894FFCF15
:1041EE007A057A057A057A057A057A057A057A05C9
:1041FE00010000002F000000000000000000000081
:10420E00000000000D000000000000000000000093
:10421E0000000000000800000000007F0A00150BDF
:10422E00000000001A000019000000000C048205B6
:10423E00AD035904DE03BC03D003000000004808A0
:10424E008205EF06EE066E616E00696E66006F7691
:10425E00660046756E6374696F6E206C696D697465
:10426E0000636F6E73747261696E3A2033206172EF
:10427E00677300726F756E643A2031206172670049
:10428E006D61783A20322061726773006D696E3A03
:10429E002032206172677300726164326465673A1E
:1042AE0020312061726700646567327261643A2062
:1042BE0031206172670061636F733A203120617241
:1042CE00670061636F733A202D3120746F203100C7
:1042DE006173696E3A203120617267006173696E95
:1042EE003A202D3120746F2031006D6F64756C6F24
:1042FE003A20322061726773006D6F64756C6F3A8D
:10430E00206E6F6E2D3020326E64006162733A2023
:10431E003120617267006C6F6731303A2031206155
:10432E007267006C6F6731303A20706F7320617264
:10433E0067006C6E3A203120617267006C6E3A2015
:10434E00706F732061726700737172743A2031203E
:10435E0061726700737172743A204E6F6E2D6E65C6
:10436E006720617267006469766964653A2032205D
:10437E00617267730044697620627920302065721D
:10438E00726F7221006D756C7469706C793A20329F
:10439E0020617267730073756274726163743A2080
:1043AE00322061726773006164643A203220617258
:1043BE006773003E00456E7465722070726573738C
:1043CE006564000D0A00526561647900436861728C
:1043DE0061637465723A20006D61703A2035206118
:1043EE007267730072616E643A2032206172677375
:1043FE000074616E683A20312061726700636F73DA
:10440E00683A2031206172670073696E683A203114
:10441E0020617267006174616E3A203120617267AB
:10442E00006578703A20312061726700666C6F6F9C
:10443E00723A203120617267006365696C3A2031EF
:10444E002061726700706F7765723A203220617258
:10445E006773006D617056616C756500636F6E7386
:10446E00747261696E56616C75650072616E646F0F
:10447E006D56616C756500726F756E6456616C7504
:10448E0065006D6178696D756D006D696E696D752C
:10449E006D0072616469616E73546F446567726515
:1044AE0065730064656772656573546F5261646904
:1044BE00616E730074616E6800636F736800736978
:1044CE006E680061726374616E67656E740061720E
:1044DE0063636F73696E650061726373696E650005
:1044EE006578706F6E656E7469616C006D6F647562
:1044FE006C6F00666C6F6F7256616C7565006365EC
:10450E00696C56616C7565006162736F6C7574656C
:10451E0056616C7565006261736531304C6F670072
:10452E006E61747572616C4C6F6700737175617238
:10453E0065526F6F7400706F77657200646976698B
:10454E006465006D756C7469706C79007375627456
:10455E007261637400616464004A6F686E20312E6C
:10456E0030004A434C20496E7465727072657465F2
:10457E007200505332204B6579626F617264004550
:10458E007865637574696E672E2E2E004261636BBB
:10459E007370616365207072657373656400556E28
:1045AE006B6E6F776E207363616E636F64653A2016
:0245BE000000FB
:00000001FF
