:100000000C942B020C94A1090C9476090C944B09C6
:100010000C9420090C94F5080C94CA080C949F08C1
:100020000C9474080C945C020C945C020C945C02BA
:100030000C945C020C945C020C945C020C945C02C8
:100040000C945C020C945C020C945C020C945C02B8
:100050000C945C020C945C020C945C020C942A08D4
:100060000C945C020C94F6090C94CC090C945C0280
:100070000C945C020C945C020C945C020C945C0288
:100080000C945C020C945C020C945C020C945C0278
:100090000C945C020C945C020C945C020C945C0268
:1000A0000C945C020C945C020C945C020C945C0258
:1000B0000C945C020C945C020C945C020C945C0248
:1000C0000C945C020C945C020C945C020C945C0238
:1000D0000C945C020C945C020C945C020C945C0228
:1000E0000C945C020C9452030C94D4040C94380AC3
:1000F0000C9491020C9497020C9475030C94610378
:100100000C942F070C94A9020C94BC020C94A50229
:100110000C948A020C9435070C9425030C94BD02B0
:100120000C94B7020C9408040C94AF020C94B30224
:100130000C9461050C948E020C947C020C94BB030D
:100140000C9483030C9486020C9462050C949B021D
:100150000C94A1020C9424030C94C1020C9482020E
:100160004E414E494E495459494E46CDCCCC3D0A9C
:10017000D7233C17B7D13877CC2B329595E6241F7F
:10018000B14F0A000020410000C84200401C462038
:10019000BCBE4CCA1B0E5AAEC59D74000020002385
:1001A00000260029002C002F00320000010000036F
:1001B000010601090100000000000000000000002D
:1001C0000000096000000000000071310000007AAA
:1001D0007361773200006378646534330000207601
:1001E0006674723500006E62686779360000006DD3
:1001F0006A75373800002C6B696F303900002E2F7C
:100200006C3B702D00000027005B3D000000000DDE
:100210005D005C00000000000000007F0000310075
:100220003437000000302E323536381B00002B33B7
:100230002D2A39000000000000000000000000002E
:1002400000000000000000000000097E0000000027
:10025000000051210000005A53415740000043580C
:1002600044452423000020564654522500004E42A7
:100270004847595E0000004D4A55262A00003C4B75
:10028000494F292800003E3F4C3A505F00000022B1
:10029000007B2B000000000D7D007C0000000000B2
:1002A0000000007F000031003437000000302E32A3
:1002B0003536381B00002B332D2A39000000000092
:1002C000000000000000000000000000000000002E
:1002D000000000000000000000000000000000001E
:1002E000000000000000000000000000000000000E
:1002F00000000000000000000000000000000000FE
:1003000000000000000000000000000000000000ED
:1003100000000000000000000000000000000000DD
:1003200000000000000000000000000000000000CD
:1003300000000000000000000000000000000000BD
:1003400000000000000000000000000000000000AD
:100350002100240027002A002D0030003300010175
:100360000000040107010A01000022002500280006
:100370002B002E00310034000201000005010801AD
:100380000B01050505050705080808080202020219
:100390000A0A080804040404010101010101010121
:1003A0000303030303030303040707070C0C0C0CEC
:1003B0000C0C0C0C020202020606060606060606D5
:1003C0000B0B0B0B0B0B0B0B010210202008081062
:1003D00020401020408002010201080402010102B5
:1003E000040810204080804020100804020180048E
:1003F00002018040201008040201080402010102E9
:1004000004081020408001020408102040800000F1
:100410000A0B02090C0D0E0807030401000000007E
:1004200000000000000000000000000000000000CC
:100430000000000000000000000012111000000089
:1004400000000000000000000000000000000000AC
:1004500000000000380A11241FBECFEFD1E2DEBF3A
:10046000CDBF00E00CBF28E0A2EDB2E001C01D92BC
:10047000A930B207E1F712E0A0E0B2E0E8E1F6E26D
:1004800000E00BBF02C007900D92A23DB107D9F763
:1004900012E0CBE2D2E000E006C021970109802FF4
:1004A000FE010E94C910CA32D10780E00807A9F7EF
:1004B0000E94E50A0C940A130C94000081508231CA
:1004C00008F05AC0E82FF0E08827E659FD4F8F4F1B
:1004D0000C94C9108A028E027C0282028602BC023F
:1004E000910297029B02A102A502A902AF02B302E8
:1004F000BC02B702BD02C102809180008F77809359
:1005000080000895809180008F7DF9CF80918000D8
:10051000877FF5CF84B58F7784BD089584B58F7DAF
:10052000FBCF8091B0008F778093B00008958091C9
:10053000B0008F7DF9CF809190008F7780939000ED
:100540000895809190008F7DF9CF80919000877FF2
:10055000F5CF8091A0008F778093A00008958091BF
:10056000A0008F7DF9CF8091A000877FF5CF80918B
:1005700020018F77809320010895809120018F7D45
:10058000F9CF80912001877FF5CF1F93CF93DF9321
:10059000282F30E0F901E25FFB4F8491F901E85325
:1005A000FC4FD491F901EE57FC4FC491CC23A9F034
:1005B000162F81110E945E02EC2FF0E0EE0FFF1F5C
:1005C000E859FC4FA591B4918FB7F894EC911111B3
:1005D00008C0D095DE23DC938FBFDF91CF911F91B0
:1005E0000895DE2BF8CFCF93DF9390E0FC01E85322
:1005F000FC4F24918E579C4FFC0184918823D1F0AD
:1006000090E0880F991FFC01E25BFC4FA591B4912B
:10061000FC01E859FC4FC591D491623071F49FB749
:10062000F8943C91822F809583238C93E8812E2B24
:1006300028839FBFDF91CF9108958FB7F894EC91F5
:100640002E2B2C938FBFF6CF0895AF92BF92CF92EF
:10065000DF92EF92FF920F931F93CF93DF936C0182
:100660007B018B01040F151FEB015E01AE18BF0863
:10067000C017D10759F06991D601ED91FC91019015
:10068000F081E02DC6011995892B79F7C501DF911D
:10069000CF911F910F91FF90EF90DF90CF90BF907F
:1006A000AF900895FC01538D448D252F30E0842FA9
:1006B00090E0821B930B541710F0CF96089501978A
:1006C0000895FC01918D828D981761F0A28DAE0F77
:1006D000BF2FB11D5D968C91928D9F5F9F73928FFE
:1006E00090E008958FEF9FEF0895FC01918D828D2A
:1006F000981731F0828DE80FF11D858D90E00895F7
:100700008FEF9FEF0895FC01918D228D892F90E04E
:10071000805C9F4F821B91098F73992708958AE40B
:1007200093E00E94830321E0892B09F420E0822FCB
:100730000895FC01A48DA80FB92FB11DA35ABF4F76
:100740002C91848D90E001968F739927848FA689D0
:10075000B7892C93A089B1898C91837080648C9324
:10076000938D848D981306C00288F389E02D8081D3
:100770008F7D80830895EF92FF920F931F93CF9305
:10078000DF93EC0181E0888F9B8D8C8D98131AC0CC
:10079000E889F989808185FF15C09FB7F894EE89B3
:1007A000FF896083E889F989808183708064808310
:1007B0009FBF81E090E0DF91CF911F910F91FF905B
:1007C000EF900895F62E0B8D10E00F5F1F4F0F7303
:1007D0001127E02E8C8D8E110CC00FB607FCFACFBE
:1007E000E889F989808185FFF5CFCE010E949903C0
:1007F000F1CFEB8DEC0FFD2FF11DE35AFF4FF0828F
:100800009FB7F8940B8FEA89FB8980818062CFCFF4
:10081000CF93DF93EC01888D8823B9F0AA89BB8937
:10082000E889F9898C9185FD03C0808186FD0DC022
:100830000FB607FCF7CF8C9185FFF2CF808185FF43
:10084000EDCFCE010E949903E9CFDF91CF910895BA
:1008500080E090E0892B29F00E948F0381110E9493
:10086000000080E090E0892B49F080E090E0892B47
:1008700029F00E94000081110E94000080E090E0B9
:10088000892B49F080E090E0892B29F00E9400003C
:1008900081110E94000080E090E0892B49F080E007
:1008A00090E0892B29F00E94000081110C94000037
:1008B0000895CF932091080330910903B901685737
:1008C0007F4FA9014F5E5E4F90910503D901A05F54
:1008D000BE4F80910603E09107038E1305C09093ED
:1008E000050380E0CF9108958F5F8D3208F080E09E
:1008F000E82FF0E0E852FD4FE08180930603EE23FD
:1009000071F3E03F11F49160E4CFE03E11F49260A6
:10091000E0CF90FF0FC0E23119F49B7F9C7FD9CFCD
:10092000E93511F4977FFACFE131C1F791FFF6CFA6
:100930009F7EF4CFE23111F49460CBCFE93511F40E
:100940009860C7CFE13111F491FD9061C92FCC7F40
:1009500091FF10C0EA54E43310F09C2FBACFF0E0BE
:10096000EA5EFD4F80819C2F882309F4B2CFC093AB
:100970000503B8CF94FF0AC08C91882339F0E8387A
:1009800060F7E40FF52FF11D8491EDCF9C7031F0ED
:10099000E83818F7E60FF72FF11DF6CFE838E8F63C
:1009A000E20FF32FF11DF0CFCF92DF92EF92FF9283
:1009B0000F931F93CF93DF9320910A0330E0F90147
:1009C000E25FFB4F8491F901E853FC4FD491F901A8
:1009D000EE57FC4FC491CC2309F471C081110E94E1
:1009E0005E02EC2FF0E0EE0FFF1FE556FE4FA591E3
:1009F000B491EC91ED2331E009F430E0832F2FB76F
:100A0000F8944091460350914703609148037091D8
:100A100049032FBF0091D4021091D5022091D60234
:100A20003091D7026A017B01C01AD10AE20AF30AA7
:100A3000970186010B3F11052105310520F0109229
:100A4000D3021092D2024093D4025093D502609305
:100A5000D6027093D7022091D3023FEF320F383085
:100A600048F401C0880F3A95EAF79091D202892B99
:100A70008093D2022F5F2093D3022B30B9F4809160
:100A800007038F5F8D3208F080E09091060398177E
:100A900049F0E82FF0E09091D202E852FD4F9083A8
:100AA000809307031092D3021092D202DF91CF916C
:100AB0001F910F91FF90EF90DF90CF90089580E00D
:100AC0009ECF089590E080E00895FC010190002001
:100AD000E9F73197AF01481B590BBC0187EE93E052
:100AE0000C9425038F929F92AF92BF920F931F9306
:100AF000CF93DF93CDB7DEB7A1970FB6F894DEBFE3
:100B00000FBECDBF19A2423008F44AE08E010F5D3E
:100B10001F4F842E912CB12CA12CA50194010E9471
:100B2000A710E62FB901CA01EA30F4F4E05DD8015C
:100B3000EE938D01232B242B252B79F790E080E079
:100B4000109719F0CD010E946505A1960FB6F89493
:100B5000DEBF0FBECDBFDF91CF911F910F91BF9030
:100B6000AF909F908F900895E95CE1CFCF93DF9392
:100B7000EC0160E08E810E94C50261E08E810E94DE
:100B8000C50260E08E810E94C5028BE891E001976A
:100B9000F1F7DF91CF910895CF92DF92EF92FF921C
:100BA0000F931F93CF93DF936C017C0187E0E80ED6
:100BB000F11CD0E0C0E0062F10E0B8010C2E02C0FE
:100BC000759567950A94E2F76170F70181917F014D
:100BD0000E94C5022196C430D10579F7C601DF9184
:100BE000CF911F910F91FF90EF90DF90CF900C94D9
:100BF000B605CF92DF92EF92FF920F931F93CF93A0
:100C0000DF93EC01F62E642F8C810E94C5028D814A
:100C10008F3F19F060E00E94C5020F2D10E08F8514
:100C200084FF25C06E0187E0C80ED11CF12CE12C99
:100C3000B8010E2C02C0759567950A94E2F76170B1
:100C4000F60181916F010E94C502FFEFEF1AFF0AC2
:100C500088E0E816F10461F7CE01DF91CF911F9192
:100C60000F91FF90EF90DF90CF900C94B605B801F4
:100C700084E0759567958A95E1F7CE010E94CC05D1
:100C80006F2DCE01DF91CF911F910F91FF90EF90CB
:100C9000DF90CF900C94CC0540E0682F87EE93E076
:100CA0000C94F905CF93DF93813029F09091F603EE
:100CB00098609093F6038093FA031092FB0380E40C
:100CC0008093FC0380E18093FD0380E58093FE0325
:100CD00061E08091EB030E94F3028091EC038F3F6F
:100CE00019F061E00E94F30261E08091ED030E943F
:100CF000F302C7EED3E09E01275E33408091F603F6
:100D000084FD0BC084E090E021962817390744F455
:100D100061E08E810E94F302EECF88E090E0F4CF94
:100D20008BE39DE00197F1F760E08091EB030E9477
:100D3000C50260E08091ED030E94C5028091EC0342
:100D40008F3F19F060E00E94C5028091F60384FD98
:100D500039C063E087EE93E00E94CC05CBE4D6E493
:100D6000CE010197F1F763E087EE93E00E94CC0596
:100D70002197F1F763E087EE93E00E94CC0583E5CD
:100D800092E00197F1F762E087EE93E00E94CC05D4
:100D90008091F60380620E944C0684E08093F70302
:100DA0008CE00E944C0681E00E944C068BE39FE1A0
:100DB0000197F1F782E08093F80386E0DF91CF910D
:100DC0000C944C0680620E944C068BE496E40197DA
:100DD000F1F78091F60380620E944C0683E592E071
:100DE0000197F1F78091F60380620E944C06D0CF04
:100DF000643008F063E09091FA03691710F06FEF28
:100E0000690FE62FF0E0E951FC4F9489890F806863
:100E10000C944C06CF93DF93682F80E00E94F80675
:100E2000C0E1D0E088E692E00E9465052197D1F705
:100E3000DF91CF91089562E080E00E94F80682E0A1
:100E400090E00E940A0762E080E00E94F8068AE6CD
:100E500092E00E94650562E081E00C94F80641E0B2
:100E60000E94F90581E090E008954F925F926F92A1
:100E70007F928F929F92AF92BF92CF92DF92EF922A
:100E8000FF92CF93DF93EB010297D1F063E080E014
:100E90000E94F80683E090E00E940A078BE792E048
:100EA000DF91CF91FF90EF90DF90CF90BF90AF9008
:100EB0009F908F907F906F905F904F900C946505FE
:100EC000888199810E94120D6B017C018A819B812E
:100ED0000E94120D9B01AC01C701B6010E940210D5
:100EE0006B017C014B015C0163E080E00E94F8062D
:100EF00083E090E00E940A07A7019601C701B601AE
:100F00000E94A210882319F087E892E0C9CF260139
:100F10003701E89477F82FEF3FEF4FE75FE7C30122
:100F2000B2010E94A21081110DC02FEF3FEF4FE7D9
:100F30005FE7C301B2010E94C00E18161CF48BE8D3
:100F400092E0AECF2FEF3FEF4FE75FE4C701B6016E
:100F50000E949D1018161CF48FE892E0A1CF2FEF8D
:100F60003FEF4FE75FECC701B6010E94C00E87FD5F
:100F7000F3CF20E030E0A901C701B6010E94C00E06
:100F800087FF0CC041E06DE287EE93E00E94F90517
:100F900046015701B7FAB094B7F8B0942AE037ED9C
:100FA00043EA5BE3C501B4010E9402104B015C01FE
:100FB0000E946E106B017C010E94C50E9B01AC016A
:100FC000C501B4010E9401104B015C014AE0C70158
:100FD000B6010E94720541E06EE287EE93E00E9446
:100FE000F90520E030E040E251E4C501B4010E947F
:100FF000260F4B015C010E946E106B01F12CE12C5D
:101000004AE0C701B6010E947205C701B6010E94FD
:10101000C50E9B01AC01C501B4010E94011020E086
:1010200030E040E251E40E94260F0E946E1090E0F2
:1010300080E04AE0DF91CF91FF90EF90DF90CF907A
:10104000BF90AF909F908F907F906F905F904F90E8
:101050000C9472051F920F920FB60F9211242F93CA
:101060003F938F939F93AF93BF938091460390914B
:101070004703A0914803B09149033091450323E011
:10108000230F2D3758F50196A11DB11D209345035F
:101090008093460390934703A0934803B09349037A
:1010A0008091410390914203A0914303B091440386
:1010B0000196A11DB11D8093410390934203A0931B
:1010C0004303B0934403BF91AF919F918F913F91A0
:1010D0002F910F900FBE0F901F90189526E8230FA9
:1010E0000296A11DB11DD2CF1F920F920FB60F9283
:1010F00011240BB60F922F933F934F935F936F93EF
:101100007F938F939F93AF93BF93EF93FF93E09160
:101110000E02F0910F021995FF91EF91BF91AF91DF
:101120009F918F917F916F915F914F913F912F91FF
:101130000F900BBE0F900FBE0F901F9018951F922F
:101140000F920FB60F9211240BB60F922F933F936D
:101150004F935F936F937F938F939F93AF93BF93BF
:10116000EF93FF93E0910C02F0910D021995FF911E
:10117000EF91BF91AF919F918F917F916F915F910F
:101180004F913F912F910F900BBE0F900FBE0F907C
:101190001F9018951F920F920FB60F9211240BB645
:1011A0000F922F933F934F935F936F937F938F9300
:1011B0009F93AF93BF93EF93FF93E0910202F0915F
:1011C00003021995FF91EF91BF91AF919F918F917C
:1011D0007F916F915F914F913F912F910F900BBE37
:1011E0000F900FBE0F901F9018951F920F920FB681
:1011F0000F9211240BB60F922F933F934F935F934F
:101200006F937F938F939F93AF93BF93EF93FF93CE
:10121000E0910002F09101021995FF91EF91BF91C9
:10122000AF919F918F917F916F915F914F913F917E
:101230002F910F900BBE0F900FBE0F901F9018951F
:101240001F920F920FB60F9211240BB60F922F938D
:101250003F934F935F936F937F938F939F93AF933E
:10126000BF93EF93FF93E0910A02F0910B0219955F
:10127000FF91EF91BF91AF919F918F917F916F916E
:101280005F914F913F912F910F900BBE0F900FBE2A
:101290000F901F9018951F920F920FB60F92112466
:1012A0000BB60F922F933F934F935F936F937F9360
:1012B0008F939F93AF93BF93EF93FF93E0910802B7
:1012C000F09109021995FF91EF91BF91AF919F9114
:1012D0008F917F916F915F914F913F912F910F90DF
:1012E0000BBE0F900FBE0F901F9018951F920F927C
:1012F0000FB60F9211240BB60F922F933F934F937B
:101300005F936F937F938F939F93AF93BF93EF936D
:10131000FF93E0910602F09107021995FF91EF917A
:10132000BF91AF919F918F917F916F915F914F91FD
:101330003F912F910F900BBE0F900FBE0F901F90FB
:1013400018951F920F920FB60F9211240BB60F92A1
:101350002F933F934F935F936F937F938F939F93BD
:10136000AF93BF93EF93FF93E0910402F0910502D6
:101370001995FF91EF91BF91AF919F918F917F91BF
:101380006F915F914F913F912F910F900BBE0F90F6
:101390000FBE0F901F9018951F920F920FB60F92CD
:1013A00011240BB60F922F933F934F935F936F933C
:1013B0007F938F939F93AF93BF93EF93FF938AE4B1
:1013C00093E00E949903FF91EF91BF91AF919F919C
:1013D0008F917F916F915F914F913F912F910F90DE
:1013E0000BBE0F900FBE0F901F9018951F920F927B
:1013F0000FB60F9211240BB60F922F938F939F93DA
:10140000EF93FF93E0915A03F0915B038081E091A9
:101410006003F091610382FD1DC0908180916303A0
:101420008F5F8F7320916403821741F0E091630313
:10143000F0E0E65BFC4F958F80936303FF91EF91A3
:101440009F918F912F910F900BBE0F900FBE0F9019
:101450001F9018958081F2CF63E080E00E94F8062B
:1014600083E090E00E940A078CE692E00C94650508
:1014700010924D0310924C0388EE93E0A0E0B0E090
:1014800080934E0390934F03A0935003B093510366
:101490008EE492E090934B0380934A0385EC90E0B6
:1014A000909357038093560384EC90E090935903F4
:1014B0008093580380EC90E090935B0380935A03F1
:1014C00081EC90E090935D0380935C0382EC90E06C
:1014D00090935F0380935E0386EC90E090936103AA
:1014E000809360031092630310926403109265036B
:1014F000109266038091FF07909100088F3F91053D
:1015000011F00CF05DC0FC01EE0FFF1FEE0FFF1F8E
:10151000E150FC4F23E932E03183208325E337E0BB
:10152000338322830196909300088093FF071092E3
:10153000EA031092E90380E692E09093E803809337
:10154000E70388E08093EB038FEF8093EC0389E05F
:101550008093ED0384E08093EE0385E08093EF03B6
:1015600086E08093F00387E08093F1031092F2030A
:101570001092F3031092F4031092F5031092F60305
:1015800081E00E9452068091FF07909100088F3FF2
:10159000910509F0C4F4FC01EE0FFF1FEE0FFF1FD1
:1015A000E150FC4F23E932E03183208325E337E02B
:1015B000338322830196909300088093FF07089558
:1015C0000E942C0AB4CF0C942C0A789484B58260C3
:1015D00084BD84B5816084BD85B5826085BD85B5D7
:1015E000816085BD80916E00816080936E00109255
:1015F00081008091810082608093810080918100D0
:101600008160809381008091800081608093800060
:101610008091B10084608093B1008091B0008160BE
:101620008093B000809191008260809391008091BE
:1016300091008160809391008091900081608093FF
:1016400090008091A10082608093A1008091A10010
:1016500081608093A1008091A00081608093A000B0
:10166000809121018260809321018091210181601C
:1016700080932101809120018160809320018091DD
:101680007A00846080937A0080917A0082608093EF
:101690007A0080917A00816080937A0080917A004C
:1016A000806880937A001092C10084E00E94520604
:1016B000E0915A03F0915B0392E09083E09156032E
:1016C000F09157031082E0915803F09159038FEC89
:1016D000808310926203E0915E03F0915F0386E0E5
:1016E0008083E0915C03F0915D0380818061808361
:1016F000E0915C03F0915D03808188608083E091DC
:101700005C03F0915D03808180688083E0915C03DD
:10171000F0915D0380818F7D808390930A0385EB38
:1017200091E0909309038093080362E083E00E94B4
:10173000F30262E082E00E94F3021092070310922B
:10174000060384ED94E0909303028093020280915B
:101750006A00837F886080936A00ED9A81E00E942E
:101760004C068BE39FE10197F1F787E992E00E9435
:10177000650561E080E00E94F80680EA92E00E9440
:1017800065050E941B0760910C0390910B0391115A
:1017900045C1611117C00E94590480930B0388232F
:1017A00009F4BAC0682F10920B0367FFB8C0962FD8
:1017B0009F73906890930C0362956695669563702D
:1017C000606C02C010920C0380913F039091400323
:1017D0006D3009F0F0C0835F9C4FFC01108263E024
:1017E00080E00E94F80683E090E00E940A0763E030
:1017F00080E00E94F80680EB92E00E9465058091EF
:101800000D03882309F474C08DE093E00E94D71281
:101810003C016DEB72E00E94160D009709F4C9C0FF
:101820000E94D7126C0168E672E00E94160DEC016E
:1018300069E672E090E080E00E94160D5C0120975E
:1018400009F4ABC00091FF07109100082FEFE22EC2
:1018500023E0F22E312C212C201631060CF09DC0F5
:10186000BE01F701808191810E94FA122C01F4E0FF
:10187000EF0EF11C892B09F098C0A114B10409F4F2
:1018800084C0F5018081882309F47FC0C5010E94CE
:10189000D7125C0168E672E00E94160D4C0110E060
:1018A00000E0D0E0C0E08114910409F44EC00F5F65
:1018B0001F4F7801EE0CFF1CB701CE010E94F611FC
:1018C000EC01892B89F563E080E00E94F80683E053
:1018D00090E00E940A078FEB92E00E946505C50127
:1018E0000E946D11C3010E946D11C6010E946D110D
:1018F0001092400310923F03EDE0F3E082E3119277
:101900008A95E9F763E080E00E94F80683E090E0C2
:101910000E940A070E941B070E94280434CF61110D
:1019200053CF6FEF7FEF50CFC4010E94D712EC0E60
:10193000FD1EF70132979183808368E672E090E0A4
:1019400080E00E94160D4C01AECFC5010E946D11C2
:10195000F101EE0FFF1FEE0FFF1FE150FC4F028061
:10196000F381E02DBE01C80119952097B1F07E01E9
:101970000415150579F0F701819191917F010E947D
:101980006D11FFEF4F1A5F0AF3CF10E000E0D0E0D7
:10199000C0E0DECFCE010E946D11C6010E946D1124
:1019A0006DEB72E090E080E036CF8FEF281A380AB6
:1019B00053CFC3019BCF6F37E1F4181619060CF013
:1019C000ABCF01979093400380933F03FC01E35F0B
:1019D000FC4F108262E08F5F0E94F80688E692E07A
:1019E0000E94650580913F0362E08F5F0E94F806C8
:1019F00093CF813391050CF08FCF9C012F5F3F4F28
:101A00003093400320933F03835F9C4FFC0160832E
:101A100041E087EE93E00E94F9057ECF6111D2CEBE
:101A2000692FC1CE662777270C94410D41E058E01D
:101A30000C941A0DFA01A191B081009719F4109736
:101A4000E1F0CD01DC01CD010D90002011F4C001C9
:101A500013C0FB012191222319F02015D9F7F3CFF0
:101A6000FB012191201519F41E92119606C0222324
:101A7000C1F70D900020A1F7D001FA01A193B08326
:101A800008958F929F92AF92BF92CF92DF92EF9282
:101A9000FF920F931F93CF93DF935C017B0161153E
:101AA000710519F0DB018D939C9385010F5F1F4F2A
:101AB000F501D0818D2F90E00E949F0E6C01892B43
:101AC000B9F5DD32B9F50F5F1F4FD5011196DC91E5
:101AD000C1E05801F1E0AF1AB10843E050E068E618
:101AE00071E0C5010E94A80E892B69F5680182E0AA
:101AF000C80ED11C45E050E063E671E0C6010E94CB
:101B0000A80E892B21F4680197E0C90ED11CE114BD
:101B1000F10419F0D701CD92DC9260E070E080E82A
:101B20009FEFC111FFC060E070E080E89FE7FAC05E
:101B30005801BBCFDB3229F485010E5F1F4FF50141
:101B4000D181C0E0C6CF43E050E060E671E0C5015E
:101B50000E94A80E892BE9F0F80110E000E020E0D7
:101B600030E0A9015F01B0ED8B2E8D0E89E0881564
:101B7000C8F19C2E689491F88C2F8870C2FF16C013
:101B8000811102C00F5F1F4F3196D501DC91C92D25
:101B9000E9CFE114F10429F00E5F1F4FF701118323
:101BA000008360E070E080EC9FE7BCC0882311F008
:101BB00001501109A5E0B0E00E94E70F9B01AC01C4
:101BC000220F331F441F551F280D311D411D511D6C
:101BD000283999E93907490799E15907A8F2C660F8
:101BE0009C2ED2CFAEEF8A1206C0C3FD3CC09C2E05
:101BF000689493F8C9CFDF7DD534A9F580818D3203
:101C000039F4C061DF011296818162E070E006C0A4
:101C1000DF018B32C1F3119661E070E080535D010A
:101C2000A61AB70A8A30F8F4E0E8CE16ECE0DE0631
:101C30005CF4B601660F771F660F771FC60ED71EBE
:101C4000CC0CDD1CC80ED11C5D01FFEFAF1ABF0A22
:101C50008C9180538A30A8F1C4FF03C0D194C19401
:101C6000D1080C0D1D1DC1FF09C0E114F10431F0B4
:101C700081E0A81AB108D701AD92BC92CA01B9019E
:101C80000E94C50EC370C33009F490584B015C012B
:101C900020E030E0A9010E94C00E882309F440C072
:101CA000C7E9D1E017FF05C0119501951109CFE7EC
:101CB000D1E06E01B8E1CB1AD10880E2E82EF12C18
:101CC0000FC0D501B1CFFE012591359145915491B9
:101CD0000E191F09C501B4010E94260F4B015C01BA
:101CE000D501C4010E151F0574F72497F594E794E8
:101CF000CC16DD06A9F78A2F880F8B2F881F8F3F00
:101D000049F020E030E0A901C501B4010E94C00EF5
:101D1000811106C082E290E090930408809303084A
:101D2000C501B401DF91CF911F910F91FF90EF900A
:101D3000DF90CF90BF90AF909F908F9008959111BA
:101D40000C94930F803219F089508550C8F708958C
:101D5000FB01DC014150504088F08D9181341CF032
:101D60008B350CF4805E659161341CF06B350CF49E
:101D7000605E861B611171F3990B0895881BFCCF7F
:101D80000E94020F08F481E00895E89409C097FBCF
:101D90003EF490958095709561957F4F8F4F9F4F42
:101DA0009923A9F0F92F96E9BB279395F695879586
:101DB00077956795B795F111F8CFFAF4BB0F11F449
:101DC00060FF1BC06F5F7F4F8F4F9F4F16C08823F0
:101DD00011F096E911C0772321F09EE8872F762F26
:101DE00005C0662371F096E8862F70E060E02AF067
:101DF0009A95660F771F881FDAF7880F9695879553
:101E000097F90895990F0008550FAA0BE0E8FEEF27
:101E100016161706E807F907C0F012161306E407AE
:101E2000F50798F0621B730B840B950B39F40A26A7
:101E300061F0232B242B252B21F408950A2609F485
:101E4000A140A6958FEF811D811D08950E94390F35
:101E50000C94AD0F0E949F0F38F00E94A60F20F047
:101E6000952311F00C94960F0C949C0F11240C9454
:101E7000E10F0E94BE0F70F3959FC1F3950F50E0E4
:101E8000551F629FF001729FBB27F00DB11D639F2C
:101E9000AA27F00DB11DAA1F649F6627B00DA11DD2
:101EA000661F829F2227B00DA11D621F739FB00D78
:101EB000A11D621F839FA00D611D221F749F3327E8
:101EC000A00D611D231F849F600D211D822F762F81
:101ED0006A2F11249F5750409AF0F1F088234AF05E
:101EE000EE0FFF1FBB1F661F771F881F91505040CA
:101EF000A9F79E3F510580F00C94960F0C94E10FCA
:101F00005F3FE4F3983ED4F3869577956795B79550
:101F1000F795E7959F5FC1F7FE2B880F911D96956A
:101F2000879597F9089599278827089597F99F67C6
:101F300080E870E060E008959FEF80EC0895002451
:101F40000A941616170618060906089500240A941E
:101F500012161306140605060895092E0394000CA4
:101F600011F4882352F0BB0F40F4BF2B11F460FF33
:101F700004C06F5F7F4F8F4F9F4F089557FD90585C
:101F8000440F551F59F05F3F71F04795880F97FB3D
:101F9000991F61F09F3F79F08795089512161306F7
:101FA0001406551FF2CF4695F1DF08C01616170626
:101FB0001806991FF1CF869571056105089408955B
:101FC000E894BB2766277727CB0197F908950E94ED
:101FD000F20FA59F900DB49F900DA49F800D911DB1
:101FE00011240895A29FB001B39FC001A39F700D5B
:101FF000811D1124911DB29F700D811D1124911D11
:1020000008955058BB27AA270E9419100C94AD0FB1
:102010000E949F0F38F00E94A60F20F039F49F3FD6
:1020200019F426F40C949C0F0EF4E095E7FB0C9445
:10203000960FE92F0E94BE0F58F3BA176207730775
:102040008407950720F079F4A6F50C94E00F0EF4C0
:10205000E0950B2EBA2FA02D0B01B90190010C01B8
:10206000CA01A0011124FF27591B99F0593F50F4D0
:10207000503E68F11A16F040A22F232F342F442728
:10208000585FF3CF469537952795A795F040539520
:10209000C9F77EF41F16BA0B620B730B840BBAF0F0
:1020A0009150A1F0FF0FBB1F661F771F881FC2F75B
:1020B0000EC0BA0F621F731F841F48F4879577956F
:1020C0006795B795F7959E3F08F0B0CF9395880F29
:1020D00008F09927EE0F9795879508950E94C60FEF
:1020E00088F09F5798F0B92F9927B751B0F0E1F0D9
:1020F000660F771F881F991F1AF0BA95C9F714C089
:10210000B13091F00E94E00FB1E008950C94E00F1F
:10211000672F782F8827B85F39F0B93FCCF38695C1
:1021200077956795B395D9F73EF49095809570951E
:1021300061957F4F8F4F9F4F08950E94020F08F4C3
:102140008FEF08950E94020F880B990B0895A1E26A
:102150001A2EAA1BBB1BFD010DC0AA1FBB1FEE1F21
:10216000FF1FA217B307E407F50720F0A21BB30B6C
:10217000E40BF50B661F771F881F991F1A9469F7E8
:1021800060957095809590959B01AC01BD01CF0144
:102190000895EE0FFF1F881F8BBF0790F691E02D6B
:1021A00019940F931F93CF93DF938230910510F40E
:1021B00082E090E0E0910708F091080830E020E02C
:1021C000B0E0A0E0309799F42115310509F44AC038
:1021D000281B390B24303105D8F58A819B81611584
:1021E000710589F1FB0193838283FE0111C0408157
:1021F00051810281138148175907E0F048175907A8
:1022000099F4109761F012960C93129713961C9301
:102210003296CF01DF91CF911F910F9108950093D6
:10222000070810930808F4CF2115310551F0421723
:10223000530738F0A901DB019A01BD01DF01F80164
:10224000C1CFEF01F9CF9093080880930708CDCF55
:10225000FE01E20FF31F81939193225031093983DC
:102260002883D7CF2091050830910608232B41F40D
:102270002091120230911302309306082093050832
:1022800020911002309111022115310541F42DB732
:102290003EB74091140250911502241B350BE0917A
:1022A0000508F0910608E217F307A0F42E1B3F0B78
:1022B0002817390778F0AC014E5F5F4F24173507B8
:1022C00048F04E0F5F1F5093060840930508819316
:1022D00091939FCFF0E0E0E09CCFCF93DF93009706
:1022E000E9F0FC01329713821282A0910708B091A5
:1022F0000808ED0130E020E01097A1F42081318141
:10230000820F931F2091050830910608281739077E
:1023100009F061C0F0930608E0930508DF91CF91C2
:102320000895EA01CE17DF07E8F54A815B819E0137
:1023300041155105B1F7E901FB83EA8349915991B0
:10234000C40FD51FEC17FD0761F4808191810296BF
:10235000840F951FE90199838883828193819B83F0
:102360008A83F0E0E0E012968D919C91139700979C
:10237000B9F52D913C911197CD010296820F931FD3
:1023800020910508309106082817390739F630974B
:1023900051F51092080810920708B0930608A09310
:1023A0000508BCCFD383C28340815181840F951F20
:1023B000C817D90761F44E5F5F4F88819981480F34
:1023C000591F518340838A819B8193838283211586
:1023D000310509F0B0CFF0930808E09307089ECFCD
:1023E000FD01DC01C0CF13821282D7CF4F925F92E2
:1023F0006F927F928F929F92AF92BF92CF92DF9215
:10240000EF92FF920F931F93CF93DF938C0100976E
:1024100099F4CB01DF91CF911F910F91FF90EF9035
:10242000DF90CF90BF90AF909F908F907F906F90F4
:102430005F904F900C94D110FC01E60FF71F9C01A8
:1024400022503109E217F30708F4AEC0D901CD914B
:10245000DC911197C617D70720F1C530D10578F068
:10246000CE0104978617970750F0C61BD70B22970B
:10247000C193D1936D937C93CF010E946D11C801DC
:10248000DF91CF911F910F91FF90EF90DF90CF9050
:10249000BF90AF909F908F907F906F905F904F9084
:1024A00008955B01AC1ABD0A4C018C0E9D1EA091D3
:1024B0000708B0910808512C412CF12CE12C109701
:1024C00031F580910508909106088815990509F065
:1024D0005CC04616570608F058C0809110029091D3
:1024E0001102009741F48DB79EB7409114025091AC
:1024F0001502841B950BE817F90708F055C0F093F7
:102500000608E0930508F90171836083B8CF8D91C7
:102510009C91119712966C90129713967C9013973A
:10252000A815B90559F56C0142E0C40ED11CCA14B6
:10253000DB0420F1AC014A195B09DA011296159708
:1025400080F06282738251834083D9016D937C93C2
:10255000E114F10471F0D7011396FC93EE931297F6
:102560008ECF22968C0F9D1FF90191838083F301FA
:10257000EFCFF0930808E093070881CF481659067B
:1025800008F42C017D01D3019ACFCB010E94D11018
:102590007C01009749F0AE01B8010E94F112C80118
:1025A0000E946D1187016BCF10E000E068CF0F93A0
:1025B0001F93CF93DF938C01FC0101900020E9F77A
:1025C000CF01801B910B0E94D110EC01009719F0F4
:1025D000B8010E940313CE01DF91CF911F910F919B
:1025E0000895FB01DC0102C001900D924150504062
:1025F000D8F70895FB01DC018D910190801901103D
:10260000D9F3990B0895FB01DC0101900D92002094
:08261000E1F70895F894FFCFF3
:10261800240324032403240324032403240324037A
:102628000000090880002F000000000000000000E2
:102638000000000000000D00000000000000000085
:10264800000000000000000800000000007F0A00F1
:10265800150B000000001A00001900000000BB0361
:102668002503520308048303610375030000000077
:102678002F0725036205610520003E0046756E633D
:1026880074696F6E206C696D6974006164643A20C6
:10269800322061726773006E616E00696E66006F4A
:1026A800766600616464004A6F686E20312E3000DF
:1026B8004A434C20496E7465727072657465720085
:1026C800457865637574696E672E2E2E003B004D44
:1026D800656D6F727920616C6C6F63206572726FC3
:0226E80072007E
:00000001FF
