:020000040000FA
:100000000C9410040C947C310C9451310C942631D6
:100010000C94FB300C94D0300C94A5300C947A30B6
:100020000C944F300C9441040C9441040C94410402
:100030000C9441040C9441040C9441040C9441042C
:100040000C9441040C9441040C9441040C9441041C
:100050000C9441040C9441040C9441040C9405301C
:100060000C9441040C94D1310C94A7310C944104AC
:100070000C9441040C9441040C9441040C944104EC
:100080000C9441040C9441040C9441040C944104DC
:100090000C9441040C9441040C9441040C944104CC
:1000A0000C9441040C9441040C9441040C944104BC
:1000B0000C9441040C9441040C9441040C944104AC
:1000C0000C9441040C9441040C9441040C9441049C
:1000D0000C9441040C9441040C9441040C9441048C
:1000E0000C944104036EDB363D9A9999993DABAA75
:1000F000AA2A3E000000803F084AD73B3BCE016E53
:1001000084BCBFFDC12F3D6C74319ABD56833DDA6E
:100110003D00C77F11BED9E4BB4C3E916BAAAABE7D
:10012000000000803F07634236B79BD8A71A3968A2
:100130005618AEBAAB558C1D3CB7CC5763BD6DEDB0
:10014000FD753EF6177231BF000000803F072C7A24
:10015000A5BA6CC590DA3B9365FC8BBC53F810FDD7
:100160003C5692834DBD879D3AB63DCBC9BF5BBE21
:1001700073DA0FC93F05A84CCDB2D44EB93836A9B1
:10018000020C50B9918688083CA6AAAA2ABE000093
:1001900000803F08000000BE922449123EABAAAA8C
:1001A0002ABECDCCCC4C3E00000080BEABAAAAAA91
:1001B0003E00000000BF000000803F000000000083
:1001C000084178D3BB4387D1133D190E3CC3BD42D0
:1001D00082AD2B3E68EC8276BED98FE1A93E4C8081
:1001E000EFFFBE01C4FF7F3F0000000000028988CE
:1001F000083CABAAAA2A3E000000803F028988087A
:100200003EABAAAAAABE000000803F0664EC1B3CDD
:1002100004BC163E3BE5B93CC93C37C29E5A3D661C
:100220000498083EEA69AAAA3E000000803F0C94A8
:10023000D9190C94751E0C94DE140C940D370C9483
:10024000E90D0C94AC360C9451150C9481140C945B
:1002500076050C94AF220C949B270C946E050C949D
:100260002D250C948E0C0C940F370C9467100C9465
:10027000B4170C9426370C94CB1B0C9411370C94A8
:1002800028370C946C250C94EA360C94D00F0C94FF
:10029000AE360C9483050C94DD350C944D220C94F1
:1002A000CB210C941B200C9478190C9423320C94C1
:1002B000A5250C947B0C0C9407370C94482B0C94BC
:1002C000191D0C9413370C949F050C94F6110C9483
:1002D000F6220C94260E0C9489240C94F8360C9477
:1002E00005370C94002F0C9420370C94B8360C94DE
:1002F00024370C9417370C94EE360C9452040C945B
:10030000E4360C9454110C940C2C0C94A3050C940E
:10031000B80D0C94B3160C941A370C94EF040C948B
:100320007A050C941C370C9426170C94722F0C949D
:100330009D360C9494280C94E21A0C943D0D0C9468
:10034000C50E0C94A5110C94FF360C9410130C944C
:10035000B6360C94A8050C946B060C9434370C94A8
:10036000F6360C94EB0E0C94370F0C947D050C9420
:10037000B5150C94F2360C94930D0C94FA360C943B
:10038000290C0C94DE280C94A9050C9472050C948D
:100390000D1E0C9474040C94F4360C94A8230C9445
:1003A000C7260C9499360C94E3200C9452070C94B5
:1003B00061230C9473060C94732D0C94E2360C9408
:1003C0000B370C9443040C9400260C949E260C943A
:1003D000A6360C9455200C94F0360C94B4360C943C
:1003E000DB2B0C9443290C9495050C9401370C9449
:1003F00087050C9439280C94000D0C948D050C94F1
:10040000DF070C949C100C949B050C94B2360C9452
:1004100003370C9441260C94EC360C944E240C9427
:10042000E8240C94412F0C9448180C94EA2A0C945C
:10043000E0070C9468050C94A32F0C943D2C0C94AD
:100440002A370C9416270C9491050C94A4360C941E
:1004500031120C941E370C941D100C9421140C9422
:100460008A210C94680C0C941B0C0C94B0360C94E0
:1004700066040C94A2040C9413240C94D80E0C94CF
:10048000792B0C94D42F0C94AA360C948C180C94C1
:100490008D190C94E6360C94E8360C9436370C948F
:1004A000FC360C9432370C94F80A0C9428160C94F1
:1004B00015370C94A42D0C94982A0C94AA2B0C9408
:1004C000D41F0C946C1F0C942E370C942C370C9466
:1004D000CA130C942A210C94A8360C946C120C9418
:1004E0000C220C9457130C9463190C9422370C941F
:1004F0009C200C94B6290C94A51D0C94630E0C94AE
:100500000B110C94730F0C94D3180C94BE120C9412
:100510006E0D0C94B41C0C94002A0C9430370C947F
:100520003A2E0C9409370C94AD054E414E494E4974
:100530005459494E46CDCCCC3D0AD7233C17B7D1B0
:100540003877CC2B329595E6241FB14F0A00002056
:10055000410000C84200401C4620BCBE4CCA1B0ED5
:100560005AAEC59D74000020002300260029002CEF
:10057000002F003200000100000301060109010004
:100580000000000000000000000000000960000002
:100590000000000071310000007A736177320000C2
:1005A0006378646534330000207666747235000029
:1005B0006E62686779360000006D6A753738000032
:1005C0002C6B696F303900002E2F6C3B702D0000B2
:1005D0000027005B3D000000000D5D005C00000096
:1005E00000000000007F00003100343700000030C0
:1005F0002E323536381B00002B332D2A39000000EF
:1006000000000000000000000000000000000000EA
:1006100000000000097E00000000000051210000E1
:10062000005A5341574000004358444524230000DA
:1006300020564654522500004E424847595E00005D
:10064000004D4A55262A00003C4B494F29280000FE
:100650003E3F4C3A505F00000022007B2B00000020
:10066000000D7D007C00000000000000007F000005
:1006700031003437000000302E323536381B000090
:100680002B332D2A3900000000000000000000007C
:10069000000000000000000000000000000000005A
:1006A000000000000000000000000000000000004A
:1006B000000000000000000000000000000000003A
:1006C000000000000000000000000000000000002A
:1006D000000000000000000000000000000000001A
:1006E000000000000000000000000000000000000A
:1006F00000000000000000000000000000000000FA
:1007000000000000000000000000000000000000E9
:10071000000000000000000000002100240027006D
:100720002A002D0030003300010100000401070100
:100730000A0100002200250028002B002E003100B5
:10074000340002010000050108010B010505050543
:10075000070508080808020202020A0A0808040439
:100760000404010101010101010103030303030367
:100770000303040707070C0C0C0C0C0C0C0C0202F6
:10078000020206060606060606060B0B0B0B0B0BF3
:100790000B0B010210202008081020401020408080
:1007A0000201020108040201010204081020408035
:1007B00080402010080402018004020180402010C3
:1007C000080402010804020101020408102040800C
:1007D000010204081020408000000A0B02090C0DE1
:1007E0000E080703040100000000000000000000E4
:1007F00000000000000000000000000000000000F9
:1008000000000000121110000000000000000000B5
:100810000000000000000000000000000000233283
:1008200011241FBECFEFD1E2DEBFCDBF00E00CBF71
:1008300011E1A0E0B2E0EEECF3E800E00BBF02C093
:1008400007900D92AE3DB107D9F723E1AEEDB1E1CE
:1008500001C01D92A431B207E1F714E0C0E1D4E079
:1008600000E006C021970109802FFE010E94504040
:10087000CF30D10780E00807A9F70E94E4340C9438
:10088000E5410C940000FC01538D448D252F30E090
:10089000842F90E0821B930B541710F0CF9608958D
:1008A00001970895FC01918D828D981761F0A28DBA
:1008B000AE0FBF2FB11D5D968C91928D9F5F9F7380
:1008C000928F90E008958FEF9FEF0895FC01918D36
:1008D000828D981731F0828DE80FF11D858D90E0A3
:1008E00008958FEF9FEF0895FC01918D228D892F40
:1008F00090E0805C9F4F821B91098F739927089528
:10090000FC01A48DA80FB92FB11DA35ABF4F2C9184
:10091000848D90E001968F739927848FA689B7897B
:100920002C93A089B1898C91837080648C93938D72
:10093000848D981306C00288F389E02D80818F7D15
:1009400080830895EF92FF920F931F93CF93DF93CD
:10095000EC0181E0888F9B8D8C8D98131AC0E889FB
:10096000F989808185FF15C09FB7F894EE89FF89CA
:100970006083E889F98980818370806480839FBF68
:1009800081E090E0DF91CF911F910F91FF90EF9068
:100990000895F62E0B8D10E00F5F1F4F0F73112778
:1009A000E02E8C8D8E110CC00FB607FCFACFE889B3
:1009B000F989808185FFF5CFCE010E948004F1CFB7
:1009C000EB8DEC0FFD2FF11DE35AFF4FF0829FB727
:1009D000F8940B8FEA89FB8980818062CFCFCF9317
:1009E000DF93EC01888D8823B9F0AA89BB89E88957
:1009F000F9898C9185FD03C0808186FD0DC00FB6FD
:100A000007FCF7CF8C9185FFF2CF808185FFEDCF7A
:100A1000CE010E948004E9CFDF91CF91089589E54E
:100A200092E10E94740421E0892B09F420E0822FD6
:100A3000089580E090E0892B29F00E940F05811134
:100A40000E94000080E090E0892B49F080E090E077
:100A5000892B29F00E94000081110E94000080E093
:100A600090E0892B49F080E090E0892B29F00E94EA
:100A7000000081110E94000080E090E0892B49F085
:100A800080E090E0892B29F00E94000081110C94F5
:100A9000000008958150823108F05AC0E82FF0E03C
:100AA0008827EA5AFA4F8F4F0C94504076057A0502
:100AB00068056E057205A8057D05830587058D050A
:100AC000910595059B059F05A805A305A905AD05FD
:100AD000809180008F7780938000089580918000BE
:100AE0008F7DF9CF80918000877FF5CF84B58F7798
:100AF00084BD089584B58F7DFBCF8091B0008F7742
:100B00008093B00008958091B0008F7DF9CF8091DF
:100B100090008F77809390000895809190008F7D52
:100B2000F9CF80919000877FF5CF8091A0008F77DB
:100B30008093A00008958091A0008F7DF9CF8091CF
:100B4000A000877FF5CF809120018F7780932001CF
:100B50000895809120018F7DF9CF80912001877FBA
:100B6000F5CF1F93CF93DF93282F30E0F901E852A0
:100B7000F84F8491F901EE56F84FD491F901E45BF6
:100B8000F84FC491CC23A9F0162F81110E944A0579
:100B9000EC2FF0E0EE0FFF1FEE5CF84FA591B49143
:100BA0008FB7F894EC91111108C0D095DE23DC9337
:100BB0008FBFDF91CF911F910895DE2BF8CFCF9398
:100BC000DF9390E0FC01EE56F84F2491845B984F40
:100BD000FC0184918823D1F090E0880F991FFC01DB
:100BE000E85EF84FA591B491FC01EE5CF84FC59119
:100BF000D491623071F49FB7F8943C91822F809524
:100C000083238C93E8812E2B28839FBFDF91CF9184
:100C100008958FB7F894EC912E2B2C938FBFF6CFBD
:100C20003FB7F8948091551290915612A0915712A7
:100C3000B091581226B5A89B05C02F3F19F0019618
:100C4000A11DB11D3FBFBA2FA92F982F8827BC0126
:100C5000CD01620F711D811D911D42E0660F771F4E
:100C6000881F991F4A95D1F708958F929F92AF924E
:100C7000BF92CF92DF92EF92FF920E9410064B013B
:100C80005C0188EEC82E83E0D82EE12CF12C0E9466
:100C90001006681979098A099B09683E7340810525
:100CA0009105A8F321E0C21AD108E108F10888EE05
:100CB000880E83E0981EA11CB11CC114D104E1046C
:100CC000F10429F7FF90EF90DF90CF90BF90AF90A5
:100CD0009F908F9008950895DC01ED91FC91019013
:100CE000F081E02D1994AF92BF92CF92DF92EF92F4
:100CF000FF920F931F93CF93DF936C017B018B01C6
:100D0000040F151FEB015E01AE18BF08C017D10715
:100D100059F06991D601ED91FC910190F081E02D9F
:100D2000C6011995892B79F7C501DF91CF911F91E4
:100D30000F91FF90EF90DF90CF90BF90AF9008950C
:100D4000CF932091181230911912B90168577F4F33
:100D5000A9014F5E5E4F90911312D901A05FBE4F63
:100D600080911612E09117128E1305C09093131202
:100D700080E0CF9108958F5F8D3208F080E0E82FFA
:100D8000F0E0EA51FE4EE08180931612EE2371F3FB
:100D9000E03F11F49160E4CFE03E11F49260E0CFC7
:100DA00090FF0FC0E23119F49B7F9C7FD9CFE935CA
:100DB00011F4977FFACFE131C1F791FFF6CF9F7E13
:100DC000F4CFE23111F49460CBCFE93511F498609F
:100DD000C7CFE13111F491FD9061C92FCC7F91FF14
:100DE00010C0EA54E43310F09C2FBACFF0E0E65E76
:100DF000FD4F80819C2F882309F4B2CFC09313123A
:100E0000B8CF94FF0AC08C91882339F0E83860F796
:100E1000E40FF52FF11D8491EDCF9C7031F0E8388F
:100E200018F7E60FF72FF11DF6CFE838E8F6E20FD6
:100E3000F32FF11DF0CF80911512882321F010922D
:100E4000151290E0089580911412882379F0109281
:100E5000141287FF0EC0982F9F73906890931512FD
:100E60008295869586958370806CEBCF0E94A00654
:100E7000F0CF8111E6CF8FEF9FEF0895809114128C
:100E800081110EC08091151281110AC00E94A00626
:100E9000982F8093141281E0911103C080E008958F
:100EA00081E00895CF92DF92EF92FF920F931F930C
:100EB000CF93DF9320911A1230E0F901E852F84FF6
:100EC0008491F901EE56F84FD491F901E45BF84FA3
:100ED000C491CC2309F471C081110E944A05EC2F02
:100EE000F0E0EE0FFF1FEB59FA4FA591B491EC9192
:100EF000ED2331E009F430E0832F2FB7F8944091CF
:100F000051125091521260915312709154122FBF8E
:100F10000091E2111091E3112091E4113091E5115B
:100F20006A017B01C01AD10AE20AF30A970186011D
:100F30000B3F11052105310520F01092E1111092AF
:100F4000E0114093E2115093E3116093E411709328
:100F5000E5112091E1113FEF320F383048F401C024
:100F6000880F3A95EAF79091E011892B8093E01170
:100F70002F5F2093E1112B30B9F4809117128F5F0E
:100F80008D3208F080E090911612981749F0E82F02
:100F9000F0E09091E011EA51FE4E90838093171299
:100FA0001092E1111092E011DF91CF911F910F91FA
:100FB000FF90EF90DF90CF90089580E09ECF08954E
:100FC00090E080E00895FB0101900020E9F731975F
:100FD000AF01461B570BDC01ED91FC910280F381C0
:100FE000E02D19948F929F92AF92BF92EF92FF9251
:100FF0000F931F93CF93DF93CDB7DEB7A1970FB6B3
:10100000F894DEBF0FBECDBF7C01FA01CB0119A25F
:10101000223008F42AE08E010F5D1F4F822E912CA2
:10102000B12CA12CBF01A50194010E942C3BF90118
:10103000CA016A300CF5605DD8016E938D01232BD7
:10104000242B252B79F790E080E0109721F0BD014B
:10105000C7010E94E307A1960FB6F894DEBF0FBE4A
:10106000CDBFDF91CF911F910F91FF90EF90BF9077
:10107000AF909F908F900895695CDECFCF92DF9202
:10108000EF92FF920F931F93CF93DF932A30310596
:1010900001F52AE077FF1DC06A017B01EC016DE2DA
:1010A0000E946C068C0144275527BA014C195D0932
:1010B0006E097F092AE0CE010E94F207800F911F7E
:1010C000DF91CF911F910F91FF90EF90DF90CF9024
:1010D0000895DF91CF911F910F91FF90EF90DF90D6
:1010E000CF900C94F2079A01AB01770F660B770B48
:1010F0000C943E086115710511F00C94E30790E023
:1011000080E008954F925F926F927F928F929F92AC
:10111000AF92BF92CF92DF92EF92FF926B017C0170
:10112000AC019B010E9420406CE672E0811126C058
:1011300046015701E894B7F82FEF3FEF4FE75FE71D
:10114000C501B4010E94204081110CC02FEF3FEF78
:101150004FE75FE7C501B4010E94D33960E772E051
:10116000181664F02FEF3FEF4FE75FE4C701B601B9
:101170000E942C3E181694F464E772E086EF92E128
:10118000FF90EF90DF90CF90BF90AF909F908F90A7
:101190007F906F905F904F900C94E3072FEF3FEF9D
:1011A0004FE75FECC701B6010E94D33987FDE4CF5A
:1011B00020E030E0A901C701B6010E94D339B12C6B
:1011C000A12C87FF0AC06DE286EF92E10E946C06B7
:1011D0005C01F7FAF094F7F8F0942AE037ED43EA6F
:1011E0005BE3C701B6010E946F3B2B013C010E94EB
:1011F0000B3D6B017C010E94D8399B01AC01C301FE
:10120000B2010E946E3B2B013C012AE0B701A6010E
:1012100086EF92E10E94F2077C01EA0CFB1C6EE271
:1012200086EF92E10E946C06E80EF91E20E030E0A5
:1012300040E251E4C301B2010E94393A2B013C0162
:101240000E940B3D4B01B12CA12C2AE0B501A40159
:1012500086EF92E10E94F207E80EF91EC501B40183
:101260000E94D8399B01AC01C301B2010E946E3BC0
:1012700020E030E040E251E40E94393A0E940B3D08
:10128000AB0170E060E02AE086EF92E10E94F20795
:101290008E0D9F1DFF90EF90DF90CF90BF90AF908D
:1012A0009F908F907F906F905F904F900895CF9315
:1012B000DF93EC0160E08E810E94B10561E08E81D8
:1012C0000E94B10560E08E810E94B1058BE891E03B
:1012D0000197F1F7DF91CF910895CF92DF92EF92CE
:1012E000FF920F931F93CF93DF936C017C0187E0F4
:1012F000E80EF11CD0E0C0E0062F10E0B8010C2E83
:1013000002C0759567950A94E2F76170F7018191C3
:101310007F010E94B1052196C430D10579F7C6013D
:10132000DF91CF911F910F91FF90EF90DF90CF90C1
:101330000C945709CF92DF92EF92FF920F931F9375
:10134000CF93DF93EC01F62E642F8C810E94B105C0
:101350008D818F3F19F060E00E94B1050F2D10E0E4
:101360008F8584FF25C06E0187E0C80ED11CF12C4B
:10137000E12CB8010E2C02C0759567950A94E2F72E
:101380006170F60181916F010E94B105FFEFEF1AC4
:10139000FF0A88E0E816F10461F7CE01DF91CF91F2
:1013A0001F910F91FF90EF90DF90CF900C94570911
:1013B000B80184E0759567958A95E1F7CE010E94A2
:1013C0006D096F2DCE01DF91CF911F910F91FF908D
:1013D000EF90DF90CF900C946D0940E0682F86EF7E
:1013E00092E10C949A0981E00E94ED098BE39FE160
:1013F0000197F1F70895CF93DF93613029F0909131
:1014000005139860909305136093091310920A13C3
:1014100090E490930B1380930C13805C80930D13D6
:1014200061E08091FA120E94DF058091FB128F3FEC
:1014300019F061E00E94DF0561E08091FC120E94DA
:10144000DF05C6EFD2E19E01265F32418091051390
:1014500084FD0BC084E090E021962817390744F4FE
:1014600061E08E810E94DF05EECF88E090E0F4CF4E
:101470008BE39DE00197F1F760E08091FA120E9402
:10148000B10560E08091FC120E94B1058091FB12D1
:101490008F3F19F060E00E94B1058091051384FD33
:1014A00034C063E086EF92E10E946D09CBE4D6E49C
:1014B000CE010197F1F763E086EF92E10E946D099A
:1014C0002197F1F763E086EF92E10E946D0983E5D1
:1014D00092E00197F1F762E086EF92E10E946D09D8
:1014E0008091051380620E94ED0984E080930613C9
:1014F0008CE00E94ED090E94F30982E080930713BB
:1015000086E0DF91CF910C94ED0980620E94ED0995
:101510008BE496E40197F1F78091051380620E94B5
:10152000ED0983E592E00197F1F780910513806260
:101530000E94ED09D5CF643008F063E09091091363
:10154000691710F06FEF690FE62FF0E0EA50FD4EDB
:101550009489890F80680C94ED09CF93C82F68E7B0
:1015600072E089E592E10E947A086C2F89E592E1A8
:101570000E946C0664E872E089E592E10E94E3074C
:1015800080914D1290914E1281339105E4F49C01AB
:101590002F5F3F4F30934E1220934D12855E9D4E2C
:1015A000FC01C083255E3D4EF90110820E94F309C3
:1015B00060E080E00E949B0A6BE172E186EF92E1BD
:1015C000CF910C947A08CF910895CF93DF93682F31
:1015D00080E00E949B0AC0E1D0E066EA73E086EFFB
:1015E00092E10E947A082197C1F7DF91CF91089587
:1015F0002F923F924F925F926F927F928F929F9223
:10160000AF92BF92CF92DF92EF92FF920F931F9310
:10161000CF93DF9300D000D0CDB7DEB78C017C83B1
:101620006B83039734F563E080E00E949B0A83E0BC
:1016300090E00E94E50A67E872E086EF92E1269664
:101640000FB6F894DEBF0FBECDBFDF91CF911F91D3
:101650000F91FF90EF90DF90CF90BF90AF909F9051
:101660008F907F906F905F904F903F902F900C9451
:101670007A08EB81FC81808191810E94F2376C01B4
:101680007801F1E0EF1AF108181619061CF480171A
:1016900091076CF163E080E00E949B0A83E090E098
:1016A0000E94E50A67E972E086EF92E10E947A08FB
:1016B0004AE050E0B70186EF92E126960FB6F89423
:1016C000DEBF0FBECDBFDF91CF911F910F91FF9075
:1016D000EF90DF90CF90BF90AF909F908F907F90D2
:1016E0006F905F904F903F902F900C947308C701BC
:1016F000880F991F880F991F0E946C4089839A83D5
:10170000AB80BC8022E0A20EB11C1C01000F111F97
:101710008B819C81080F191F2B823C82F5018191DE
:1017200091915F010E94EE37EB81FC81619371938F
:1017300081939193FC83EB83A016B10679F763E064
:1017400080E00E949B0A83E090E00E94E50A62EA42
:1017500072E086EF92E10E947A08DE82CD8210E08C
:1017600000E097012C193D093C832B832601DD0CF9
:10177000660877088B819C81801791070CF43FC025
:1017800061017801812C912C5401ED81FE81EE16CE
:10179000FF0684F4F60121913191419151916F013D
:1017A000C501B4010E946F3B4B015C01FFEFEF1AD2
:1017B000FF0AEBCFC301B2010E94DA399B01AC01F1
:1017C000C501B4010E94583C6B017C0163E080E0DC
:1017D0000E949B0A83E090E00E94E50AC701B601DF
:1017E0000E9482080E9435060F5F1F4F24E0220EE0
:1017F000311C8D819E8101969E838D83BBCF898113
:101800009A8126960FB6F894DEBF0FBECDBFDF914A
:10181000CF911F910F91FF90EF90DF90CF90BF90ED
:10182000AF909F908F907F906F905F904F903F9080
:101830002F900C94084163E080E00E949B0A83E0B3
:1018400090E00E94E50A6AEA72E086EF92E10C9469
:101850007A0863E080E00E949B0A83E090E00E94A7
:10186000E50A68EB72E086EF92E10C947A08CF9378
:10187000DF93EC0163E080E00E949B0A83E090E04C
:101880000E94E50A66EC72E086EF92E10E947A0817
:101890006881798186EF92E10E947A086CEC72E0AF
:1018A00086EF92E10E947A086A817B8186EF92E15D
:1018B0000E947A086CEC72E086EF92E10E947A084E
:1018C0006C817D8186EF92E1DF91CF910C947A0853
:1018D000039771F063E080E00E949B0A83E090E050
:1018E0000E94E50A6EEC72E086EF92E10C947A08B1
:1018F000CB010C94370C039771F063E080E00E94F9
:101900009B0A83E090E00E94E50A6CED72E086EFAE
:1019100092E10C947A08CB010C94370CEF92FF9271
:101920000F931F93CF93DF93EB010397A1F063E035
:1019300080E00E949B0A83E090E00E94E50A69EE45
:1019400072E086EF92E1DF91CF911F910F91FF90AE
:10195000EF900C947A08888199810E94F2377C017B
:101960008A819B810E94F2378C018C819D810E942B
:10197000F237EC0189E1E816F10434F40D33110576
:101980001CF4CD33D1055CF063E080E00E949B0A3B
:1019900083E090E00E94E50A66EF72E0D2CF63E058
:1019A00080E00E949B0A83E090E00E94E50A63E0E9
:1019B00073E086EF92E10E947A0880E19EE0E89E63
:1019C000A001E99E500DF89E500D11242CE3209F9C
:1019D000C001219F900D1124480F591F4C0F5D1F0E
:1019E000052E000C660B770B2AE030E086EF92E1C3
:1019F000DF91CF911F910F91FF90EF900C943E08D3
:101A0000CF93DF93EB0163E0039779F080E00E94CE
:101A10009B0A83E090E00E94E50A6DE073E086EFA8
:101A200092E1DF91CF910C947A0880E00E949B0AAA
:101A300083E090E00E94E50A69E173E086EF92E1BD
:101A40000E947A086881798186EF92E10E947A0883
:101A50006CEC72E086EF92E10E947A086A817B81E9
:101A600086EF92E10E947A086CEC72E086EF92E1D8
:101A70000E947A086C817D81D2CFCF93DF93EB01F6
:101A800063E0029779F080E00E949B0A83E090E097
:101A90000E94E50A60E273E086EF92E1DF91CF9168
:101AA0000C947A0880E00E949B0A83E090E00E94F8
:101AB000E50A66EC72E086EF92E10E947A0868819E
:101AC000798186EF92E10E947A086EE273E086EFF8
:101AD00092E10E947A086A817B81DECFCF93DF9307
:101AE000EB0163E0019779F080E00E949B0A83E0BC
:101AF00090E00E94E50A67E373E086EF92E1DF91F0
:101B0000CF910C947A0880E00E949B0A83E090E0D9
:101B10000E94E50A67E473E086EF92E10E947A088A
:101B200068817981EACFCF93DF93EB0163E001977E
:101B300079F080E00E949B0A83E090E00E94E50A31
:101B400062E573E086EF92E1DF91CF910C947A0821
:101B500080E00E949B0A83E090E00E94E50A62E632
:101B600073E086EF92E10E947A0868817981EACF7A
:101B7000CF93DF93EB0163E0029779F080E00E945E
:101B80009B0A83E090E00E94E50A68E673E086EF36
:101B900092E1DF91CF910C947A0880E00E949B0A39
:101BA00083E090E00E94E50A67E773E086EF92E148
:101BB0000E947A086881798186EF92E10E947A0812
:101BC0006CEC72E086EF92E10E947A086A817B8178
:101BD000DECFCF93DF93EB0163E0039779F080E0F2
:101BE0000E949B0A83E090E00E94E50A6EE773E0A2
:101BF00086EF92E1DF91CF910C947A0880E00E9409
:101C00009B0A83E090E00E94E50A66EC72E086EFB2
:101C100092E10E947A086881798186EF92E10E94C0
:101C20007A086FE873E086EF92E10E947A086A8191
:101C30007B8186EF92E10E947A0863EE75E086EF81
:101C400092E10E947A086C817D81D2CFCF93DF939D
:101C5000EB0163E0039779F080E00E949B0A83E048
:101C600090E00E94E50A63E973E086EF92E1DF917C
:101C7000CF910C947A0880E00E949B0A83E090E068
:101C80000E94E50A66EC72E086EF92E10E947A0813
:101C90006881798186EF92E10E947A0864EA73E0B4
:101CA00086EF92E10E947A086A817B8186EF92E159
:101CB0000E947A0863EE75E086EF92E10E947A084E
:101CC0006C817D81D2CFCF93DF93EB0163E00497EA
:101CD00079F080E00E949B0A83E090E00E94E50A90
:101CE00068EA73E086EF92E1DF91CF910C947A0875
:101CF00080E00E949B0A83E090E00E94E50A69EB85
:101D000073E086EF92E10E947A086881798186EF1C
:101D100092E10E947A0863EE75E086EF92E10E94FC
:101D20007A086A817B8186EF92E10E947A0860ECF2
:101D300073E086EF92E10E947A086C817D8186EFE4
:101D400092E10E947A0863EE75E086EF92E10E94CC
:101D50007A086E817F81C6CFCF93DF93EC0163E079
:101D600080E00E949B0A83E090E00E94E50A66EC16
:101D700073E086EF92E10E947A086881798186EFAC
:101D800092E1DF91CF910C947A08019771F063E0B2
:101D900080E00E949B0A83E090E00E94E50A6CECE0
:101DA00073E086EF92E10C947A08CB010C94AC0EB0
:101DB000019771F063E080E00E949B0A83E090E06D
:101DC0000E94E50A69ED73E086EF92E10C947A08CF
:101DD000CB010C94AC0EEF92FF920F931F93CF9315
:101DE000DF93EC017B0163E080E01C161D0694F09C
:101DF0000E949B0A83E090E00E94E50A66EE73E091
:101E000086EF92E1DF91CF911F910F91FF90EF90BC
:101E10000C947A080E949B0A83E090E00E94E50AF5
:101E200066EC73E086EF92E10E947A088701CC0F9E
:101E3000DD1FCE0DDF1D63E080E00E949B0A83E082
:101E400090E00E94E50AF801619171918F0186EF9F
:101E500092E10E947A080E9435060C171D0759F777
:101E6000DF91CF911F910F91FF90EF9008950F9305
:101E70001F93CF93DF938B0163E0019789F080E09C
:101E80000E949B0A83E090E00E94E50A66EF73E0FF
:101E900086EF92E1DF91CF911F910F910C947A0818
:101EA00080E00E949B0A83E090E00E94E50AD0E077
:101EB000C0E0D801ED91FC91EC0FFD1F608166231D
:101EC00069F0862F062E000C990BC0970A9720F414
:101ED00086EF92E10E946C062196EBCFDF91CF91C5
:101EE0001F910F910895CF92DF92EF92FF920F937F
:101EF0001F93CF93DF930197B1F063E080E00E94DE
:101F00009B0A83E090E00E94E50A6BE074E086EFB4
:101F100092E1DF91CF911F910F91FF90EF90DF90B1
:101F2000CF900C947A08FB01A081B181FD01019052
:101F30000020E9F73197EA1BFB0B8D017D01EE0EC6
:101F4000FF1EF595E795ED01CE0FDF1F0C171D075E
:101F500029F1F80181918F01082E000C990B0E9444
:101F600091416C01F70182917F01082E000C990BC1
:101F70000E949141C816D90649F3C0E063E080E0B1
:101F80000E949B0A83E090E00E94E50A68E074E00A
:101F9000CC2309F4BCCF64E074E0B9CFC1E0EECF4C
:101FA000EF92FF921F93CF93DF930197B9F4FB0158
:101FB000E080F18010E0D0E0C0E0F70181917F0186
:101FC000882309F1082E000C990B0E94B239892B45
:101FD000C1F41111F2CF219611E0EFCF63E080E060
:101FE0000E949B0A83E090E00E94E50A69E174E0A8
:101FF00086EF92E1DF91CF911F91FF90EF900C94CB
:102000007A0810E0DACF63E080E00E949B0A83E068
:1020100090E00E94E50A67E274E086EF92E10E9498
:102020007A084AE050E0BE0186EF92E1DF91CF915D
:102030001F91FF90EF900C9473080F931F93CF9311
:10204000DF938B01029791F063E080E00E949B0A8E
:1020500083E090E00E94E50A6FE274E086EF92E18F
:10206000DF91CF911F910F910C947A08FB0162814F
:102070007381808191810E94CB41EC0163E080E01B
:10208000209749F40E949B0A83E090E00E94E50AB1
:102090006CE374E0E3CF0E949B0A83E090E00E942F
:1020A000E50A66E474E086EF92E10E947A08F8019E
:1020B00080819181BE01681B790B4AE050E086EF78
:1020C00092E1DF91CF911F910F910C947308CF9300
:1020D000DF93EB0163E0019779F080E00E949B0AB7
:1020E00083E090E00E94E50A61E574E086EF92E10A
:1020F000DF91CF910C947A0880E00E949B0A83E0E4
:1021000090E00E94E50A6FE574E086EF92E10E949C
:102110007A08A881B981FD0101900020E9F7319783
:10212000EA1BFB0BAF0170E060E02AE086EF92E172
:10213000DF91CF910C94F2078F929F92AF92BF9252
:10214000CF92DF92EF92FF920F931F93CF93DF9383
:102150006B010397D1F063E080E00E949B0A83E06B
:1021600090E00E94E50A67E774E086EF92E1DF9174
:10217000CF911F910F91FF90EF90DF90CF90BF9084
:10218000AF909F908F900C947A08FB018081918191
:102190000E94EE377B018C01F601828193810E94BF
:1021A000EE374B01D82FC92FF601848195810E940B
:1021B000EE375B016C0194014D2F5C2FB701C80114
:1021C0000E94D33987FD0EC09501A601B701C80151
:1021D0000E942C3E4701D02FC12F18161CF4450138
:1021E000DC2DCD2D63E080E00E949B0A83E090E02F
:1021F0000E94E50AB4018D2F9C2FDF91CF911F9192
:102200000F91FF90EF90DF90CF90BF90AF909F9095
:102210008F900C948208CF92DF92EF92FF920197F9
:1022200091F063E080E00E949B0A83E090E00E94CE
:10223000E50A69E874E086EF92E1FF90EF90DF90A5
:10224000CF900C947A08FB01808191810E94EE3737
:102250006B017C0120E030E0A9010E942C3E20E0CF
:1022600030E040E05FE387FD1AC0C701B6010E947D
:102270006F3B0E94043D0E94DA396B017C0163E0F0
:1022800080E00E949B0A83E090E00E94E50AC7017B
:10229000B601FF90EF90DF90CF900C948208C701B9
:1022A000B6010E946E3BE5CFCF92DF92EF92FF9294
:1022B0000F931F93CF93DF937B010297B1F063E0FD
:1022C00080E00E949B0A83E090E00E94E50A66E9B4
:1022D00074E086EF92E1DF91CF911F910F91FF9013
:1022E000EF90DF90CF900C947A08FB018081918170
:1022F0000E94EE378B01D82FC92FF701828193817D
:102300000E94EE376B017C019B01AC01B8018D2F5F
:102310009C2F0E942C3E18161CF08601DE2DCF2D1E
:1023200063E080E00E949B0A83E090E00E94E50A5F
:10233000B8018D2F9C2FDF91CF911F910F91FF90AE
:10234000EF90DF90CF900C948208CF92DF92EF92C3
:10235000FF920F931F93CF93DF937B010297B1F00E
:1023600063E080E00E949B0A83E090E00E94E50A1F
:1023700062EA74E086EF92E1DF91CF911F910F91B5
:10238000FF90EF90DF90CF900C947A08FB01808152
:1023900091810E94EE378B01D82FC92FF7018281DE
:1023A00093810E94EE376B017C019B01AC01B80167
:1023B0008D2F9C2F0E94D33987FD03C08601DE2D0F
:1023C000CF2D63E080E00E949B0A83E090E00E94B2
:1023D000E50AB8018D2F9C2FDF91CF911F910F91AE
:1023E000FF90EF90DF90CF900C948208CF92DF9215
:1023F000EF92FF92019791F063E080E00E949B0AC8
:1024000083E090E00E94E50A6EEA74E086EF92E1D4
:10241000FF90EF90DF90CF900C947A08FB018081C1
:1024200091810E94EE376B017C0163E080E00E94A5
:102430009B0A83E090E00E94E50A20E030E044E35C
:1024400053E4C701B6010E94393A2BED3FE049E45D
:1024500050E40E94583CFF90EF90DF90CF900C9496
:102460008208CF92DF92EF92FF92019791F063E0A2
:1024700080E00E949B0A83E090E00E94E50A6DEBF9
:1024800074E086EF92E1FF90EF90DF90CF900C9494
:102490007A08FB01808191810E94EE376B017C01FB
:1024A00063E080E00E949B0A83E090E00E94E50ADE
:1024B0002BED3FE049E450E4C701B6010E94393AF0
:1024C00020E030E044E353E40E94583CFF90EF905A
:1024D000DF90CF900C948208CF92DF92EF92FF9220
:1024E000019791F063E080E00E949B0A83E090E016
:1024F0000E94E50A6CEC74E086EF92E1FF90EF90A9
:10250000DF90CF900C947A08FB01808191810E942A
:10251000EE376B017C0120E030E040E85FEB0E9489
:10252000D33987FD0AC020E030E040E85FE3C7010F
:10253000B6010E942C3E18165CF463E080E00E9415
:102540009B0A83E090E00E94E50A68ED74E0D4CF36
:10255000C701B6010E945D3B6B017C0163E080E036
:102560000E949B0A83E090E00E94E50AC701B60141
:10257000FF90EF90DF90CF900C948208CF92DF9283
:10258000EF92FF92019791F063E080E00E949B0A36
:1025900083E090E00E94E50A66EE74E086EF92E147
:1025A000FF90EF90DF90CF900C947A08FB01808130
:1025B00091810E94EE376B017C0120E030E040E821
:1025C0005FEB0E94D33987FD0AC020E030E040E88D
:1025D0005FE3C701B6010E942C3E18165CF463E06D
:1025E00080E00E949B0A83E090E00E94E50A62EF8F
:1025F00074E0D4CFC701B6010E94DB3B6B017C01C4
:1026000063E080E00E949B0A83E090E00E94E50A7C
:10261000C701B601FF90EF90DF90CF900C94820835
:10262000CF92DF92EF92FF92CF93DF93EB0102976D
:10263000A1F063E080E00E949B0A83E090E00E94AA
:10264000E50A60E075E086EF92E1DF91CF91FF90BF
:10265000EF90DF90CF900C947A08888199810E9446
:10266000EE376B017C018A819B810E94EE379B01D2
:10267000AC01C701B6010E94393A6B017C0163E0ED
:1026800080E00E949B0A83E090E00E94E50A6FE0F0
:1026900075E086EF92E10E947A08C701B601DF91EA
:1026A000CF91FF90EF90DF90CF900C9482084F92E3
:1026B0005F926F927F928F929F92AF92BF92CF92D2
:1026C000DF92EF92FF92CF93DF93EB010397E1F05C
:1026D00063E080E00E949B0A83E090E00E94E50AAC
:1026E00068E175E086EF92E1DF91CF91FF90EF9086
:1026F000DF90CF90BF90AF909F908F907F906F9022
:102700005F904F900C947A08888199810E94EE37EF
:102710004B015C018A819B810E94EE376B017C0139
:102720008C819D810E94EE372B013C0163E080E0AB
:102730000E949B0A83E090E00E94E50A65E275E052
:1027400086EF92E10E947A08C501B4010E948208D6
:1027500069E275E086EF92E10E947A08C701B6014E
:102760000E9482086EE275E086EF92E10E947A088C
:10277000C301B201DF91CF91FF90EF90DF90CF9036
:10278000BF90AF909F908F907F906F905F904F9091
:102790000C9482088F929F92AF92BF92CF92DF9259
:1027A000EF92FF92CF93DF93EB010297C1F063E0CA
:1027B00080E00E949B0A83E090E00E94E50A63E3C8
:1027C00075E086EF92E1DF91CF91FF90EF90DF907F
:1027D000CF90BF90AF909F908F900C947A08888193
:1027E00099810E94EE374B015C018A819B810E9496
:1027F000EE376B017C0163E080E00E949B0A83E07E
:1028000090E00E94E50A62E475E086EF92E10E94A2
:102810007A08C501B4010E94820866E475E086EF7B
:1028200092E10E947A08C701B601DF91CF91FF9033
:10283000EF90DF90CF90BF90AF909F908F900C94CF
:1028400082084F925F926F927F928F929F92AF9287
:10285000BF92CF92DF92EF92FF92CF93DF93EB0183
:102860000397E1F063E080E00E949B0A83E090E040
:102870000E94E50A6BE475E086EF92E1DF91CF916B
:10288000FF90EF90DF90CF90BF90AF909F908F9090
:102890007F906F905F904F900C947A088881998117
:1028A0000E94EE372B013C018A819B810E94EE370A
:1028B0004B015C018C819D810E94EE376B017C0194
:1028C000A5019401C301B2010E94393AA701960102
:1028D0000E94393A6B017C0163E080E00E949B0A10
:1028E00083E090E00E94E50A6AE575E086EF92E1F8
:1028F0000E947A08C701B6010E94820863E675E06B
:10290000BBCF8F929F92AF92BF92CF92DF92EF9206
:10291000FF92CF93DF93EB010397C1F063E080E078
:102920000E949B0A83E090E00E94E50A68E675E059
:1029300086EF92E1DF91CF91FF90EF90DF90CF9003
:10294000BF90AF909F908F900C947A088881998166
:102950000E94EE376B017C018A819B810E94EE37D9
:102960004B015C018C819D810E94EE379B01AC0183
:10297000C501B4010E946F3BA70196010E94393A3C
:102980006B017C0163E080E00E949B0A83E090E0A1
:102990000E94E50A63E176E086EF92E10E947A0800
:1029A000C701B601DF91CF91FF90EF90DF90CF90FC
:1029B000BF90AF909F908F900C9482084F925F923F
:1029C0006F927F928F929F92AF92BF92CF92DF923F
:1029D000EF92FF92CF93DF93EB010397E1F063E077
:1029E00080E00E949B0A83E090E00E94E50A66E78F
:1029F00075E086EF92E1DF91CF91FF90EF90DF904D
:102A0000CF90BF90AF909F908F907F906F905F908E
:102A10004F900C947A08888199810E94EE374B017F
:102A20005C018A819B810E94EE376B017C018C8165
:102A30009D810E94EE372B013C0163E080E00E9403
:102A40009B0A83E090E00E94E50A63E475E086EF6C
:102A500092E10E947A08C501B4010E94820866E8EA
:102A600075E086EF92E10E947A08C701B6010E94E4
:102A700082086AE875E086EF92E10E947A08C30155
:102A8000B201DF91CF91FF90EF90DF90CF90BF9098
:102A9000AF909F908F907F906F905F904F900C942D
:102AA00082084F925F926F927F928F929F92AF9225
:102AB000BF92CF92DF92EF92FF92CF93DF93EB0121
:102AC0000397E1F063E080E00E949B0A83E090E0DE
:102AD0000E94E50A6EE875E086EF92E1DF91CF9102
:102AE000FF90EF90DF90CF90BF90AF909F908F902E
:102AF0007F906F905F904F900C947A0888819981B5
:102B00000E94EE376B017C018A819B810E94EE3727
:102B10004B015C018C819D810E94EE372B013C01B1
:102B200063E080E00E949B0A83E090E00E94E50A57
:102B30006DE975E086EF92E10E947A08A3019201A7
:102B4000C501B4010E94393A9B01AC01C701B6012D
:102B50000E94583C2FE23DED44E25EE30E94393A88
:102B60000E9482086DE57BE0B7CF4F925F926F9233
:102B70007F928F929F92AF92BF92CF92DF92EF920D
:102B8000FF92CF93DF93EB010397E1F063E080E0E6
:102B90000E949B0A83E090E00E94E50A6BEA75E0E0
:102BA00086EF92E1DF91CF91FF90EF90DF90CF9091
:102BB000BF90AF909F908F907F906F905F904F905D
:102BC0000C947A08888199810E94EE374B015C0150
:102BD0008A819B810E94EE376B017C018C819D81F3
:102BE0000E94EE372B013C0163E080E00E949B0ACB
:102BF00083E090E00E94E50A6CEB75E086EF92E1DD
:102C00000E947A08C501B4010E94820860EC75E058
:102C100086EF92E10E947A08C701B6010E948208FD
:102C200065EC75E086EF92E10E947A08C301B2017B
:102C3000DF91CF91FF90EF90DF90CF90BF90AF905A
:102C40009F908F907F906F905F904F900C94820830
:102C50004F925F926F927F928F929F92AF92BF92AC
:102C6000CF92DF92EF92FF92CF93DF9300D000D00C
:102C7000CDB7DEB77E836D83049711F163E080E00A
:102C80000E949B0A83E090E00E94E50A6AEC75E0EE
:102C900086EF92E126960FB6F894DEBF0FBECDBF49
:102CA000DF91CF91FF90EF90DF90CF90BF90AF90EA
:102CB0009F908F907F906F905F904F900C947A08C8
:102CC000ED81FE81808191810E94EE372B013C01D4
:102CD000ED81FE81828193810E94EE3769837A8340
:102CE0008B839C83ED81FE81848195810E94EE37E8
:102CF0004B015C01ED81FE81868197810E94EE3758
:102D00006B017C0163E080E00E949B0A83E090E01D
:102D10000E94E50A6BED75E086EF92E10E947A0869
:102D200029813A814B815C81C301B2010E94393A09
:102D30009B01AC01C501B4010E94583C20E030E089
:102D400048EC52E40E94393A0E94820860EE75E035
:102D500086EF92E10E947A08C701B6010E948208BC
:102D60006CE27FE095CF4F925F926F927F928F924D
:102D70009F92AF92BF92CF92DF92EF92FF92CF934A
:102D8000DF93EB010397E1F063E080E00E949B0A90
:102D900083E090E00E94E50A65EE75E086EF92E13F
:102DA000DF91CF91FF90EF90DF90CF90BF90AF90E9
:102DB0009F908F907F906F905F904F900C947A08C7
:102DC000888199810E94EE374B015C018A819B8149
:102DD0000E94EE376B017C018C819D810E94EE3751
:102DE0002B013C0163E080E00E949B0A83E090E0BD
:102DF0000E94E50A63E475E086EF92E10E947A089A
:102E0000C501B4010E94820866E875E086EF92E190
:102E10000E947A08C701B6010E94820868EF75E037
:102E200086EF92E10E947A08C301B201DF91CF914F
:102E3000FF90EF90DF90CF90BF90AF909F908F90DA
:102E40007F906F905F904F900C9482084F925F92AA
:102E50006F927F928F929F92AF92BF92CF92DF92AA
:102E6000EF92FF92CF93DF9300D01F92CDB7DEB7E2
:102E70007A836983049701F163E080E00E949B0AF2
:102E800083E090E00E94E50A6CEF75E086EF92E146
:102E90000F900F900F900F90DF91CF91FF90EF90D8
:102EA000DF90CF90BF90AF909F908F907F906F906A
:102EB0005F904F900C947A08E981FA81808191812A
:102EC0000E94EE374B015C01E981FA818281938196
:102ED0000E94EE372B013C01E981FA8184819581C2
:102EE0000E94EE376B017C01E981FA81868197812E
:102EF0000E94EE3769837A838B839C83A3019201BE
:102F0000C501B4010E94393AA70196010E946F3BA6
:102F100029813A814B815C810E946F3B6B017C016E
:102F200063E080E00E949B0A83E090E00E94E50A53
:102F30006BE076E086EF92E10E947A08C701B60165
:102F40000F900F900F900F90DF91CF91FF90EF9027
:102F5000DF90CF90BF90AF909F908F907F906F90B9
:102F60005F904F900C9482084F925F926F927F9285
:102F70008F929F92AF92BF92CF92DF92EF92FF9289
:102F8000CF93DF9300D01F92CDB7DEB77A836983EA
:102F9000049701F163E080E00E949B0A83E090E0E7
:102FA0000E94E50A6AE176E086EF92E10F900F90C9
:102FB0000F900F90DF91CF91FF90EF90DF90CF9027
:102FC000BF90AF909F908F907F906F905F904F9049
:102FD0000C947A08E981FA81808191810E94EE3710
:102FE0004B015C01E981FA81828193810E94EE3775
:102FF0002B013C01E981FA81848195810E94EE37A1
:103000006B017C01E981FA81868197810E94EE370C
:1030100069837A838B839C83A3019201C501B401E8
:103020000E94393A4B015C0129813A814B815C81D4
:10303000C701B6010E946E3B9B01AC01C501B40102
:103040000E94393A6B017C0163E080E00E949B0A98
:1030500083E090E00E94E50A6BE276E086EF92E181
:103060000E947A08C701B6010F900F900F900F9041
:10307000DF91CF91FF90EF90DF90CF90BF90AF9016
:103080009F908F907F906F905F904F900C948208EC
:10309000CF92DF92EF92FF92CF93DF93EB010297F3
:1030A000A1F063E080E00E949B0A83E090E00E9430
:1030B000E50A67E376E086EF92E1DF91CF91FF903A
:1030C000EF90DF90CF900C947A08888199810E94CC
:1030D000EE376B017C018A819B810E94EE379B0158
:1030E000AC01C701B6010E94393A6B017C0163E073
:1030F00080E00E949B0A83E090E00E94E50A64EA77
:1031000075E086EF92E10E947A08C701B6010E943D
:10311000820869E476E0CFCFCF92DF92EF92FF9200
:10312000CF93DF93EB010297A1F063E080E00E9470
:103130009B0A83E090E00E94E50A6FE476E086EF68
:1031400092E1DF91CF91FF90EF90DF90CF900C94C0
:103150007A08888199810E94EE376B017C018A810F
:103160009B810E94EE379B01AC01C701B6010E9412
:10317000393A6B017C0163E080E00E949B0A83E0A6
:1031800090E00E94E50A6FE576E086EF92E10E940A
:103190007A08C701B601DF91CF91FF90EF90DF90E1
:1031A000CF900C948208CF92DF92EF92FF92CF9350
:1031B000DF93EB010297A1F063E080E00E949B0A9D
:1031C00083E090E00E94E50A66E676E086EF92E111
:1031D000DF91CF91FF90EF90DF90CF900C947A0821
:1031E000888199810E94EE376B017C018A819B81E5
:1031F0000E94EE379B01AC01C701B6010E94393A2B
:103200006B017C0163E080E00E949B0A83E090E018
:103210000E94E50A68E776E086EF92E10E947A086C
:10322000C701B601DF91CF91FF90EF90DF90CF9073
:103230000C948208EF92FF920F931F93CF93DF932A
:103240007C018B0163E080E00E949B0A83E090E0B8
:103250000E94E50A66EC73E086EF92E10E947A082C
:10326000E80110E000E00E151F0534F563E080E092
:103270000E949B0A83E090E00E94E50A64E876E001
:1032800086EF92E10E947A086881798186EF92E167
:103290000E947A0867E876E086EF92E10E947A0859
:1032A0006A817B8186EF92E10E947A080E9435064E
:1032B0000E5F1F4F2496D7CFDF91CF911F910F91B3
:1032C000FF90EF9008958430910514F080FF0EC0B8
:1032D00063E080E00E949B0A83E090E00E94E50AA0
:1032E0006BE876E086EF92E10C947A080C941A1958
:1032F0008430910514F080FF0EC063E080E00E94EE
:103300009B0A83E090E00E94E50A6CE976E086EF94
:1033100092E10C947A080C941A19EF92FF920F9391
:103320001F93CF93DF93EC017B0163E080E0C23019
:10333000D10594F40E949B0A83E090E00E94E50A84
:103340006DEA76E086EF92E1DF91CF911F910F91C8
:10335000FF90EF900C947A080E949B0A83E090E023
:103360000E94E50A66EC73E086EF92E10E947A081B
:103370008701CC0FDD1FCE0DDF1D63E080E00E94D2
:103380009B0A83E090E00E94E50AF8016191719147
:103390008F0186EF92E10E947A080E9435060C1791
:1033A0001D0759F7DF91CF911F910F91FF90EF907B
:1033B00008952F923F924F925F926F927F928F92D9
:1033C0009F92AF92BF92CF92DF92EF92FF920F93B4
:1033D0001F93CF93DF9300D000D01F921F92CDB7E1
:1033E000DEB76C0178876F838230910534F563E036
:1033F00080E00E949B0A83E090E00E94E50A6AEB6D
:1034000076E086EF92E128960FB6F894DEBF0FBE05
:10341000CDBFDF91CF911F910F91FF90EF90DF9083
:10342000CF90BF90AF909F908F907F906F905F9064
:103430004F903F902F900C947A08880F991F880F17
:10344000991F0E946C408B839C83EF81F88580815B
:1034500091810E94EE37162F072FF82EE92EEF816B
:10346000F885808191810E94EE371B014C01FB8120
:10347000F9832C812A83C601880F991FEF81F88573
:10348000E80FF91FFE83ED83AB80B22EEF81F88544
:1034900081919191F887EF830E94EE372B013C01D7
:1034A000F50141925192619271925F01212F302F6B
:1034B0004F2D5E2D0E94D33987FF04C0142D052D9A
:1034C000F62CE72C9101A401C301B2010E942C3E0D
:1034D000181614F4120143012F8138858D819E81C5
:1034E0002817390799F663E080E00E949B0A83E081
:1034F00090E00E94E50A68EC76E086EF92E10E9497
:103500007A081E821D82560191E0A91AB108E9814C
:10351000FA816191719181919191FA83E983212FCF
:10352000302F4F2D5E2D0E946E3B2B013C01212F31
:10353000302F4F2D5E2DB101C4010E946E3B9B01C7
:10354000AC01C301B2010E94583C2B013C0163E075
:1035500080E00E949B0A83E090E00E94E50AC3019C
:10356000B2010E9482082D813E812A153B0534F468
:103570006EEC76E086EF92E10E947A088D819E8162
:1035800001969E838D83C816D90609F68B819C818E
:1035900028960FB6F894DEBF0FBECDBFDF91CF9156
:1035A0001F910F91FF90EF90DF90CF90BF90AF9061
:1035B0009F908F907F906F905F904F903F902F9053
:1035C0000C9408412F923F924F925F926F927F929C
:1035D0008F929F92AF92BF92CF92DF92EF92FF9223
:1035E0000F931F93CF93DF9300D000D0CDB7DEB7FA
:1035F0008C016B8379838230910534F563E080E040
:103600000E949B0A83E090E00E94E50A60ED76E06C
:1036100086EF92E126960FB6F894DEBF0FBECDBFBF
:10362000DF91CF911F910F91FF90EF90DF90CF909E
:10363000BF90AF909F908F907F906F905F904F90D2
:103640003F902F900C947A08880F991F880F991F2C
:103650000E946C401C01CB80D98089833A8278011A
:10366000EE0CFF1CEC0CFD1C8B833C82F60181915F
:1036700091916F010E94EE37EB81FC816193719310
:1036800081939193FC83EB83CE14DF0479F7980147
:10369000215031093C832B837901E114F10489F134
:1036A0002D823E82D12CC12CCE14DF0434F5ED8165
:1036B000FE81408051806280738084809580A680E6
:1036C000B780A5019401C301B2010E94D33987FFDD
:1036D0000AC0ED81FE8180829182A282B3824482FF
:1036E000558266827782FFEFCF1ADF0A2D813E81F5
:1036F0002C5F3F4F3E832D83D7CF31E0E31AF10893
:10370000CCCF63E080E00E949B0A83E090E00E94BF
:10371000E50A6DED76E086EF92E10E947A081E825E
:103720001D82E981FA816191719181919191FA8370
:10373000E9830E9482082B813C818D819E818217C2
:10374000930734F46EEC76E086EF92E10E947A08FB
:10375000ED81FE813196FE83ED830E171F0709F779
:10376000C10126960FB6F894DEBF0FBECDBFDF9124
:10377000CF911F910F91FF90EF90DF90CF90BF906E
:10378000AF909F908F907F906F905F904F903F9001
:103790002F900C9408412F923F924F925F926F921C
:1037A0007F928F929F92AF92BF92CF92DF92EF92D1
:1037B000FF920F931F93CF93DF9300D000D0CDB72C
:1037C000DEB78C016B8379838230910534F563E039
:1037D00080E00E949B0A83E090E00E94E50A65EE8B
:1037E00076E086EF92E126960FB6F894DEBF0FBE24
:1037F000CDBFDF91CF911F910F91FF90EF90DF90A0
:10380000CF90BF90AF909F908F907F906F905F9080
:103810004F903F902F900C947A08880F991F880F33
:10382000991F0E946C401C01CB80D98089833A8209
:103830007801EE0CFF1CEC0CFD1C8B833C82F60126
:10384000819191916F010E94EE37EB81FC81619330
:10385000719381939193FC83EB83CE14DF0479F70A
:103860009801215031093C832B837901E114F10443
:1038700089F12D823E82D12CC12CCE14DF0434F587
:10388000ED81FE81408051806280738084809580CC
:10389000A680B780A5019401C301B2010E942C3E0D
:1038A000181654F4ED81FE8180829182A282B38247
:1038B0004482558266827782FFEFCF1ADF0A2D811C
:1038C0003E812C5F3F4F3E832D83D7CF31E0E31AFB
:1038D000F108CCCF63E080E00E949B0A83E090E097
:1038E0000E94E50A6DED76E086EF92E10E947A088B
:1038F0001E821D82E981FA8161917191819191917C
:10390000FA83E9830E9482082B813C818D819E810C
:103910008217930734F46EEC76E086EF92E10E9412
:103920007A08ED81FE813196FE83ED830E171F0725
:1039300009F7C10126960FB6F894DEBF0FBECDBFC2
:10394000DF91CF911F910F91FF90EF90DF90CF907B
:10395000BF90AF909F908F907F906F905F904F90AF
:103960003F902F900C9408418F929F92AF92BF92FC
:10397000EF92FF920F931F93CF93DF93EC017B01A4
:103980000297C4F463E080E00E949B0A83E090E029
:103990000E94E50A61EF76E086EF92E1DF91CF9138
:1039A0001F910F91FF90EF90BF90AF909F908F90DD
:1039B0000C947A08FB01819191918F010E94EE375E
:1039C0004B015C01CC0FDD1FCE0DDF1DF12CE12C76
:1039D000F801819191918F010E94EE37A501940128
:1039E0000E94D339811103C0FFEFEF1AFF0A0C17B1
:1039F0001D0771F763E080E00E949B0A83E090E07E
:103A00000E94E50A60E077E086EF92E10E947A0882
:103A10004AE050E0B70186EF92E1DF91CF911F912C
:103A20000F91FF90EF90BF90AF909F908F900C946C
:103A300073084F925F926F927F928F929F92AF9294
:103A4000BF92CF92DF92EF92FF920F931F93CF938B
:103A5000DF93EC015B010297F4F463E080E00E94E5
:103A60009B0A83E090E00E94E50A68E077E086EF39
:103A700092E1DF91CF911F910F91FF90EF90DF9036
:103A8000CF90BF90AF909F908F907F906F905F90FE
:103A90004F900C947A08FB01808191810E94EE374F
:103AA0003B014C01F501819191918F010E94EE370C
:103AB0006B017C01CC0FDD1FCA0DDB1DF80181916C
:103AC00091918F010E94EE372B015C019301A401BB
:103AD0000E94D33987FF02C0320145019601A70138
:103AE000B201C5010E942C3E181614F46201750142
:103AF0000C171D0719F79301A401B601C7010E9415
:103B00006E3B6B017C0163E080E00E949B0A83E0D6
:103B100090E00E94E50A67E177E086EF92E10E947B
:103B20007A08C701B601DF91CF911F910F91FF90E5
:103B3000EF90DF90CF90BF90AF909F908F907F904D
:103B40006F905F904F900C9482088F929F92AF92EB
:103B5000BF92CF92DF92EF92FF920F931F93CF937A
:103B6000DF935C018B0118161906D4F063E080E046
:103B70000E949B0A83E090E00E94E50A6FE177E0F3
:103B800086EF92E1DF91CF911F910F91FF90EF901F
:103B9000DF90CF90BF90AF909F908F900C947A0859
:103BA000EB01899199910E94EE376B017C01AA0C7F
:103BB000BB1C0A0D1B1DC017D10789F08991999173
:103BC0000E94EE374B015C019B01AC01B601C701BD
:103BD0000E94D33987FFEFCF64017501ECCF63E01A
:103BE00080E00E949B0A83E090E00E94E50A6CE27C
:103BF00077E086EF92E10E947A08B601C701DF9173
:103C0000CF911F910F91FF90EF90DF90CF90BF90D9
:103C1000AF909F908F900C9482088F929F92AF925A
:103C2000BF92CF92DF92EF92FF920F931F93CF93A9
:103C3000DF935C018B0118161906D4F063E080E075
:103C40000E949B0A83E090E00E94E50A62E377E02D
:103C500086EF92E1DF91CF911F910F91FF90EF904E
:103C6000DF90CF90BF90AF909F908F900C947A0888
:103C7000EB01899199910E94EE376B017C01AA0CAE
:103C8000BB1C0A0D1B1DC017D10789F089919991A2
:103C90000E94EE374B015C019B01AC01B601C701EC
:103CA0000E942C3E18167CF764017501ECCF63E08E
:103CB00080E00E949B0A83E090E00E94E50A6FE3A7
:103CC00077E086EF92E10E947A08B601C701DF91A2
:103CD000CF911F910F91FF90EF90DF90CF90BF9009
:103CE000AF909F908F900C9482082F923F924F92AA
:103CF0005F926F927F928F929F92AF92BF92CF927C
:103D0000DF92EF92FF920F931F93CF93DF9300D038
:103D100000D0CDB7DEB79E838D836B0118161906D0
:103D200034F163E080E00E949B0A83E090E00E940F
:103D3000E50A65E477E086EF92E126960FB6F894FF
:103D4000DEBF0FBECDBFDF91CF911F910F91FF90CE
:103D5000EF90DF90CF90BF90AF909F908F907F902B
:103D60006F905F904F903F902F900C947A088D81C8
:103D70009E81880F991F880F991F0E946C408C01AB
:103D800076011C01CD80DE80CC0CDD1CCE0CDF1C4E
:103D90005C01D7018D919D917D010E94EE37F50167
:103DA00061937193819391935F01EC14FD0489F702
:103DB000D12CC12C8D809E80F1E08F1A9108C814FF
:103DC000D904DCF58FEFC81AD80A71015601AD810C
:103DD000BE81AA15BB0521F4B4E02B0E311CEFCF38
:103DE000D1018D919D910D90BC91A02D89839A83D5
:103DF000AB83BC83F7014480558066807780A30144
:103E00009201BC01CD010E942C3E18167CF4D10118
:103E10004D925D926D927C92139789819A81AB81CC
:103E2000BC81F70184839583A683B783FFEFAF1A24
:103E3000BF0A84E0E80EF11CCACFED81FE81F59542
:103E4000E795EE0FFF1FEE0FFF1FE00FF11FC08081
:103E5000D180E280F3809D8190FD11C03497208154
:103E6000318142815381C701B6010E946F3B20E03E
:103E700030E040E05FE30E94393A6B017C0163E08F
:103E800080E00E949B0A83E090E00E94E50A65E5DD
:103E900077E086EF92E10E947A08C701B6010E949E
:103EA0008208C80126960FB6F894DEBF0FBECDBFBC
:103EB000DF91CF911F910F91FF90EF90DF90CF9006
:103EC000BF90AF909F908F907F906F905F904F903A
:103ED0003F902F900C940841AF92BF92CF92DF9207
:103EE000EF92FF920F931F93CF93DF938C011816DD
:103EF0001906C4F063E080E00E949B0A83E090E032
:103F00000E94E50A6EE577E086EF92E1DF91CF91BE
:103F10001F910F91FF90EF90DF90CF90BF90AF90E7
:103F20000C947A08EB015C01AA0CBB1CA60EB71E10
:103F3000C12CD12C7601899199910E94EE379B0179
:103F4000AC01C701B6010E946F3B6B017C01CA1531
:103F5000DB0589F7B801110F880B990B0E94DA393C
:103F60009B01AC01C701B6010E94583C6B017C016A
:103F700063E080E00E949B0A83E090E00E94E50AF3
:103F80006BE677E086EF92E10E947A08C701B601FE
:103F9000DF91CF911F910F91FF90EF90DF90CF9025
:103FA000BF90AF900C9482080F931F93CF93DF9331
:103FB000EB01029791F063E080E00E949B0A83E0AE
:103FC00090E00E94E50A65E777E086EF92E1DF91F5
:103FD000CF911F910F910C947A08888199810E944A
:103FE000F2378C018A819B810E94F237BC01892BB8
:103FF00059F463E080E00E949B0A83E090E00E9415
:10400000E50A64E877E0E1CFC8010E943C40EC019A
:1040100063E080E00E949B0A83E090E00E94E50A52
:104020004AE050E0BE0186EF92E1DF91CF911F910F
:104030000F910C947308CF92DF92EF92FF92019749
:1040400091F063E080E00E949B0A83E090E00E9490
:10405000E50A66E977E086EF92E1FF90EF90DF9066
:10406000CF900C947A08FB01808191810E94EE37F9
:104070006B017C0120E030E0A9010E942C3E181663
:1040800024F0F7FAF094F7F8F09463E080E00E94EF
:104090009B0A83E090E00E94E50AC701B601FF9009
:1040A000EF90DF90CF900C948208CF92DF92EF9246
:1040B000FF92019791F063E080E00E949B0A83E009
:1040C00090E00E94E50A61EA77E086EF92E1FF90D6
:1040D000EF90DF90CF900C947A08FB018081918162
:1040E0000E94EE376B017C0120E030E0A9010E94C4
:1040F000D33918165CF063E080E00E949B0A83E0ED
:1041000090E00E94E50A6EEA77E0DFCFC701B601D2
:104110000E94733E6B017C0163E080E00E949B0A79
:1041200083E090E00E94E50AC701B601FF90EF909E
:10413000DF90CF900C948208CF92DF92EF92FF92A3
:10414000019791F063E080E00E949B0A83E090E099
:104150000E94E50A6DEB77E086EF92E1FF90EF9029
:10416000DF90CF900C947A08FB01808191810E94AE
:10417000EE376B017C0120E030E0A9010E94D339C9
:1041800018165CF063E080E00E949B0A83E090E0F8
:104190000E94E50A67EC77E0DFCFC701B6010E9415
:1041A000833E6B017C0163E080E00E949B0A83E018
:1041B00090E00E94E50AC701B601FF90EF90DF9002
:1041C000CF900C948208CF92DF92EF92FF920197EA
:1041D00091F063E080E00E949B0A83E090E00E94FF
:1041E000E50A63ED77E086EF92E1FF90EF90DF90D4
:1041F000CF900C947A08FB01808191810E94EE3768
:104200006B017C0120E030E0A9010E94D33987FFD7
:104210000BC063E080E00E949B0A83E090E00E9474
:10422000E50A6FED77E0DFCFC701B6010E94833F5B
:104230006B017C0163E080E00E949B0A83E090E0D8
:104240000E94E50AC701B601FF90EF90DF90CF9082
:104250000C9482088F929F92AF92BF92CF92DF927E
:10426000EF92FF92CF93DF93EB010297C1F063E0EF
:1042700080E00E949B0A83E090E00E94E50A61EFE3
:1042800077E086EF92E1DF91CF91FF90EF90DF90A2
:10429000CF90BF90AF909F908F900C947A088881B8
:1042A00099810E94EE374B015C018A819B810E94BB
:1042B000EE376B017C0120E030E0A9010E94D33988
:1042C00081110AC063E00E949B0A83E090E00E9493
:1042D000E50A60E078E0D5CFA7019601C501B401F9
:1042E0000E94583C6B017C0163E080E00E949B0AC5
:1042F00083E090E00E94E50AC701B601DF91CF910B
:10430000FF90EF90DF90CF90BF90AF909F908F90F5
:104310000C948208CF92DF92EF92FF92CF93DF93BB
:10432000EB010297A1F063E080E00E949B0A83E02A
:1043300090E00E94E50A60E178E086EF92E1DF918B
:10434000CF91FF90EF90DF90CF900C947A08888106
:1043500099810E94EE376B017C018A819B810E94CA
:10436000EE379B01AC01C701B6010E94393A6B01DF
:104370007C0163E080E00E949B0A83E090E00E9461
:10438000E50AC701B601DF91CF91FF90EF90DF9072
:10439000CF900C948208CF92DF92EF92FF92CF934E
:1043A000DF93EB010297A1F063E080E00E949B0A9B
:1043B00083E090E00E94E50A61E278E086EF92E116
:1043C000DF91CF91FF90EF90DF90CF900C947A081F
:1043D000888199810E94EE376B017C018A819B81E3
:1043E0000E94EE379B01AC01C701B6010E946E3BF3
:1043F0006B017C0163E080E00E949B0A83E090E017
:104400000E94E50AC701B601DF91CF91FF90EF90BE
:10441000DF90CF900C948208CF92DF92EF92FF92C0
:10442000CF93DF93EB010297A1F063E080E00E945D
:104430009B0A83E090E00E94E50A62E378E086EF61
:1044400092E1DF91CF91FF90EF90DF90CF900C94AD
:104450007A08888199810E94EE376B017C018A81FC
:104460009B810E94EE379B01AC01C701B6010E94FF
:104470006F3B6B017C0163E080E00E949B0A83E05C
:1044800090E00E94E50AC701B601DF91CF91FF904D
:10449000EF90DF90CF900C9482084F925F926F92D2
:1044A0007F928F929F92AF92BF92CF92DF92EF92C4
:1044B000FF92CF93DF93EB010397E1F063E080E09D
:1044C0000E949B0A83E090E00E94E50A6EE378E098
:1044D00086EF92E1DF91CF91FF90EF90DF90CF9048
:1044E000BF90AF909F908F907F906F905F904F9014
:1044F0000C947A08888199810E94EE372B013C0147
:104500008A819B810E94EE374B015C018C819D81E9
:104510000E94EE376B017C0163E080E00E949B0A01
:1045200083E090E00E94E50A62E578E086EF92E1A0
:104530000E947A08A5019401C301B2010E94393A90
:10454000A70196010E94393A20E030E040E251E4B0
:104550000E94583C0E94820861E678E0B9CFCF9271
:10456000DF92EF92FF92CF93DF93EB010297A1F0DE
:1045700063E080E00E949B0A83E090E00E94E50AED
:1045800063E678E086EF92E1DF91CF91FF90EF90C4
:10459000DF90CF900C947A08888199810E94EE3741
:1045A0006B017C018A819B810E94EE379B01AC01EB
:1045B000C701B6010E94393A6B017C0163E080E0DB
:1045C0000E949B0A83E090E00E94E50A66E778E09B
:1045D00086EF92E10E947A08C701B601DF91CF9180
:1045E000FF90EF90DF90CF900C9482084F925F92F3
:1045F0006F927F928F929F92AF92BF92CF92DF92F3
:10460000EF92FF92CF93DF93EB010397E1F063E02A
:1046100080E00E949B0A83E090E00E94E50A64E843
:1046200078E086EF92E1DF91CF91FF90EF90DF90FD
:10463000CF90BF90AF909F908F907F906F905F9042
:104640004F900C947A08888199810E94EE372B0153
:104650003C018A819B810E94EE374B015C018C8179
:104660009D810E94EE376B017C01A5019401C3017D
:10467000B2010E94393AA70196010E94393A6B01B2
:104680007C0163E080E00E949B0A83E090E00E944E
:10469000E50A67E978E086EF92E10E947A08C701AF
:1046A000B601DF91CF91FF90EF90DF90CF90BF9058
:1046B000AF909F908F907F906F905F904F900C94F1
:1046C0008208CF92DF92EF92FF92CF93DF93EB01BC
:1046D0000297A1F063E080E00E949B0A83E090E0F3
:1046E0000E94E50A65EA78E086EF92E1DF91CF91DA
:1046F000FF90EF90DF90CF900C947A088881998199
:104700000E94EE376B017C018A819B810E94EE370B
:104710009B01AC01C701B6010E94393A6B017C01D3
:1047200063E080E00E949B0A83E090E00E94E50A3B
:1047300066EB78E086EF92E10E947A08C701B60145
:10474000DF91CF91FF90EF90DF90CF900C94820893
:104750004F925F926F927F928F929F92AF92BF9291
:10476000CF92DF92EF92FF92CF93DF93EB0103970B
:10477000E1F063E080E00E949B0A83E090E00E9409
:10478000E50A62EC78E086EF92E1DF91CF91FF904D
:10479000EF90DF90CF90BF90AF909F908F907F90E1
:1047A0006F905F904F900C947A08888199810E9455
:1047B000EE372B013C018A819B810E94EE374B0131
:1047C0005C018C819D810E94EE376B017C01A5010B
:1047D0009401C301B2010E94393AA70196010E94D7
:1047E000393A6B017C0163E080E00E949B0A83E020
:1047F00090E00E94E50A63ED78E086EF92E10E9486
:104800007A08C701B601DF91CF91FF90EF90DF905A
:10481000CF90BF90AF909F908F907F906F905F9060
:104820004F900C948208CF92DF92EF92FF92019703
:1048300091F063E080E00E949B0A83E090E00E9498
:10484000E50A6FED78E086EF92E1FF90EF90DF9060
:10485000CF900C947A08FB01808191810E94EE3701
:104860006B017C0163E080E00E949B0A83E090E0A2
:104870000E94E50A63EF78E086EF92E10E947A08F1
:1048800028E439EF41E550E4C701B6010E94583CE5
:10489000FF90EF90DF90CF900C948208CF92DF9240
:1048A000EF92FF92019791F063E080E00E949B0AF3
:1048B00083E090E00E94E50A6CEF78E086EF92E1F9
:1048C000FF90EF90DF90CF900C947A08FB018081ED
:1048D00091810E94EE376B017C0163E080E00E94D1
:1048E0009B0A83E090E00E94E50A60E179E086EFB0
:1048F00092E10E947A0828E439EF41E550E4C701CB
:10490000B6010E94393AFF90EF90DF90CF900C945F
:1049100082088F929F92AF92BF92CF92DF92EF92D6
:10492000FF92CF93DF93EB010297C1F063E080E049
:104930000E949B0A83E090E00E94E50A67E179E02B
:1049400086EF92E1DF91CF91FF90EF90DF90CF90D3
:10495000BF90AF909F908F900C947A088881998136
:104960000E94EE376B017C018A819B810E94EE37A9
:104970004B015C012BED3FE049E450E4C701B60177
:104980000E94393AA70196010E94393AA501940183
:104990000E94393A6B017C0163E080E00E949B0A2F
:1049A00083E090E00E94E50A6CE978E086EF92E10E
:1049B0000E947A08C701B601DF91CF91FF90EF9076
:1049C000DF90CF90BF90AF909F908F900C94820813
:1049D000CF92DF92EF92FF92019791F063E080E037
:1049E0000E949B0A83E090E00E94E50A69E279E078
:1049F00086EF92E1FF90EF90DF90CF900C947A08D1
:104A0000FB01808191810E94EE376B017C0122E9DC
:104A10003AE046E850E40E94393AA70196010E9424
:104A2000393AA70196010E94393A6B017C0163E093
:104A300080E00E949B0A83E090E00E94E50A6CE916
:104A400078E086EF92E10E947A08C701B601FF90F4
:104A5000EF90DF90CF900C948208CF92DF92EF928C
:104A6000FF92019791F063E080E00E949B0A83E04F
:104A700090E00E94E50A6AE379E086EF92E1FF9018
:104A8000EF90DF90CF900C947A08FB0180819181A8
:104A90000E94EE376B017C01AC019B010E94393A08
:104AA000A70196010E94393A6B017C0163E080E026
:104AB0000E949B0A83E090E00E94E50A6CE978E09E
:104AC00086EF92E10E947A08C701B601FF90EF904D
:104AD000DF90CF900C948208CF92DF92EF92FF92FA
:104AE000019791F063E080E00E949B0A83E090E0F0
:104AF0000E94E50A6CE479E086EF92E1FF90EF9086
:104B0000DF90CF900C947A08FB01808191810E9404
:104B1000EE379B01AC010E94393A6B017C0163E0E6
:104B200080E00E949B0A83E090E00E94E50A68ED25
:104B300078E086EF92E10E947A08C701B601FF9003
:104B4000EF90DF90CF900C9482088F929F92AF925B
:104B5000BF92CF92DF92EF92FF92CF93DF93EB0160
:104B60000297C1F063E080E00E949B0A83E090E03E
:104B70000E94E50A6EE579E086EF92E1DF91CF9140
:104B8000FF90EF90DF90CF90BF90AF909F908F906D
:104B90000C947A08888199810E94EE374B015C0160
:104BA0008A819B810E94EE376B017C0120E030E01E
:104BB00040E05FE3C501B4010E94393AA7019601C4
:104BC0000E94393A6B017C0163E080E00E949B0AFD
:104BD00083E090E00E94E50A68ED78E086EF92E1DC
:104BE0000E947A08C701B601DF91CF91FF90EF9044
:104BF000DF90CF90BF90AF909F908F900C948208E1
:104C0000CF92DF92EF92FF92019791F063E080E004
:104C10000E949B0A83E090E00E94E50A6EE679E03C
:104C200086EF92E1FF90EF90DF90CF900C947A089E
:104C3000FB01808191810E94EE376B017C012BED9D
:104C40003FE049E450E40E94393AA70196010E94EE
:104C5000393A6B017C0163E080E00E949B0A83E0AB
:104C600090E00E94E50A68ED78E086EF92E10E940C
:104C70007A08C701B601FF90EF90DF90CF900C94B7
:104C80008208CF92DF92EF92FF92CF93DF93EB01F6
:104C90000297A1F063E080E00E949B0A83E090E02D
:104CA0000E94E50A60E879E086EF92E1DF91CF911A
:104CB000FF90EF90DF90CF900C947A0888819981D3
:104CC0000E94EE376B017C018A819B810E94EE3746
:104CD0009B01AC01C701B6010E94393A6B017C010E
:104CE00063E080E00E949B0A83E090E00E94E50A76
:104CF00068ED78E086EF92E10E947A08C701B6017C
:104D0000DF91CF91FF90EF90DF90CF900C948208CD
:104D100062E080E00E949B0A82E090E00E94E50A47
:104D200062E080E00E949B0A61E979E086EF92E10F
:104D30000E947A0862E081E00C949B0A41E00E94A4
:104D40009A0981E090E0089563E979E089E592E1CC
:104D50000E94E30764E872E089E592E10E94E307BC
:104D6000EBE1F2E182E3DF011D928A95E9F710920F
:104D70004E1210924D120E94F30960E080E00E94F2
:104D80009B0A61EA79E086EF92E10C947A08CF936E
:104D9000DF93EB018230910584F063E080E00E94B4
:104DA0009B0A83E090E00E94E50A67EA79E086EFDB
:104DB00092E1DF91CF910C947A08892B59F463E04A
:104DC00080E00E949B0A83E090E00E94E50A66EB87
:104DD00079E0EDCF61EC79E0888199810E94AC4166
:104DE000892B71F463E080E00E949B0A83E090E0ED
:104DF0000E94E50A67EC79E086EF92E10E947A086A
:104E00006FEC79E0888199810E94AC41892B59F43B
:104E100063E080E00E949B0A83E090E00E94E50A44
:104E200064ED79E0C4CFDF91CF9108954F925F9206
:104E30006F927F928F929F92AF92BF92CF92DF92AA
:104E4000EF92FF920197D1F063E080E00E949B0A0D
:104E500083E090E00E94E50A6CED79E086EF92E154
:104E6000FF90EF90DF90CF90BF90AF909F908F908A
:104E70007F906F905F904F900C947A08FB01808137
:104E800091810E9410384B015C0163E080E00E9438
:104E90009B0A83E090E00E94E50A64EA75E086EFF1
:104EA00092E10E947A08C501B40120E13EE040E0B1
:104EB00050E00E94FA3A69012B013C014AE050E0BF
:104EC000B60186EF92E10E94730863EE75E086EF0B
:104ED00092E10E947A088CE3C82ED12CE12CF12CAF
:104EE000C301B201A70196010E94FA3AB9014AE052
:104EF00050E086EF92E10E94730863EE75E086EF62
:104F000092E10E947A08C501B401A70196010E94AE
:104F1000FA3A4AE050E086EF92E1FF90EF90DF909E
:104F2000CF90BF90AF909F908F907F906F905F9049
:104F30004F900C9473084F925F926F927F928F9272
:104F40009F92AF92BF92CF92DF92EF92FF92CF9358
:104F5000DF9300D000D0CDB7DEB77E836D83059799
:104F600011F163E080E00E949B0A83E090E00E94E0
:104F7000E50A69EE79E086EF92E126960FB6F8949D
:104F8000DEBF0FBECDBFDF91CF91FF90EF90DF90DE
:104F9000CF90BF90AF909F908F907F906F905F90D9
:104FA0004F900C947A08ED81FE81808191810E945E
:104FB00010386B017C01ED81FE81828193810E941A
:104FC00010382B013C01ED81FE81848195810E9486
:104FD000103869837A838B839C83ED81FE8186817F
:104FE00097810E9410384B015C01ED81FE81808524
:104FF00091850E941038A7019601241935094609A8
:105000005709681979098A099B090E942C4029814E
:105010003A814B815C8124193509460957090E9460
:10502000FA3A820E931EA41EB51E63E080E00E9431
:105030009B0A83E090E00E94E50A2AE030E0B50197
:10504000A40186EF92E126960FB6F894DEBF0FBE5C
:10505000CDBFDF91CF91FF90EF90DF90CF90BF90C9
:10506000AF909F908F907F906F905F904F900C9437
:105070003E080F931F93CF93DF93019791F063E066
:1050800080E00E949B0A83E090E00E94E50A65EFC1
:1050900079E086EF92E1DF91CF911F910F910C940F
:1050A0007A08FB0100811181F80101900020E9F7E5
:1050B000CF01801B910B0E946C40EC01B8010E9453
:1050C000B541FE0101900020E9F73197EC1BFD0B83
:1050D000DE01CE018E0F9F1FF595E795BF016C0F86
:1050E0007D1FA617B70761F02D91FC013291CF010A
:1050F000AD0141505109FA013083FC012083F1CF09
:1051000063E080E00E949B0A83E090E00E94E50A51
:10511000BE0186EF92E10E947A08CE01DF91CF9125
:105120001F910F910C9408410F931F93CF93DF931E
:10513000019791F063E080E00E949B0A83E090E099
:105140000E94E50A64E07AE086EF92E1DF91CF9178
:105150001F910F910C947A08FB01C081D181FE014F
:1051600001900020E9F7CF018C1B9D0B0E946C4041
:105170008C01BE010E94B541C02FD12F8991882397
:1051800049F0082E000C990B0E949141FE013197C5
:105190008083F4CF63E080E00E949B0A83E090E08C
:1051A0000E94E50AB80186EF92E10E947A08C801E0
:1051B000DF91CF911F910F910C940841EF92FF92D4
:1051C0000F931F93CF93DF930197A1F063E080E0EB
:1051D0000E949B0A83E090E00E94E50A61E17AE088
:1051E00086EF92E1DF91CF911F910F91FF90EF90A9
:1051F0000C947A08FB01C081D1818E01F801819164
:105200007F01882339F0082E000C990B0E94B239D7
:10521000892B89F409900020E9F722970C171D07C4
:1052200060F48881082E000C990B0E94B239892BFA
:1052300021F02197F3CF8701E1CFC01BD10BCE0125
:1052400002960E946C407C01AE014F5F5F4FB80137
:105250000E94BC41CE0DDF1D198263E080E00E94F8
:105260009B0A83E090E00E94E50AB70186EF92E195
:105270000E947A08C701DF91CF911F910F91FF9093
:10528000EF900C940841CF92DF92EF92FF920F9330
:105290001F93CF93DF938B010397B1F063E080E01E
:1052A0000E949B0A83E090E00E94E50A6DE17AE0AB
:1052B00086EF92E1DF91CF911F910F91FF90EF90D8
:1052C000DF90CF900C947A08FB01828193810E9439
:1052D000F2376C01F801848195810E94F237EC016C
:1052E000D7FC13C01816190684F4F8010081118147
:1052F000F80101900020E9F73197E01BF10BC6019E
:105300008C0F9D1FE817F90758F463E080E00E94B6
:105310009B0A83E090E00E94E50A6FE27AE0C8CF42
:10532000CE0101960E946C407C01B8016C0D7D1D80
:10533000AE010E94BC41CE0DDF1D188263E080E00B
:105340000E949B0A83E090E00E94E50AB70186EF85
:1053500092E10E947A08C701DF91CF911F910F91CE
:10536000FF90EF90DF90CF900C9408410F931F9324
:10537000CF93DF93019791F063E080E00E949B0A56
:1053800083E090E00E94E50A6CE37AE086EF92E128
:10539000DF91CF911F910F910C947A08FB01C0818E
:1053A000D181FE0101900020E9F7CF018C1B9D0BFC
:1053B0000E946C408C01BE010E94B541C02FD12FCC
:1053C0008991882349F0082E000C990B0E9499417D
:1053D000FE0131978083F4CF63E080E00E949B0A56
:1053E00083E090E00E94E50AB80186EF92E10E9416
:1053F0007A08C801DF91CF911F910F910C94084159
:10540000AF92BF92CF92DF92EF92FF920F931F93D2
:10541000CF93DF936B010397C1F063E080E00E94BC
:105420009B0A83E090E00E94E50A69E47AE086EF57
:1054300092E1DF91CF911F910F91FF90EF90DF905C
:10544000CF90BF90AF900C947A08DB011296ED904C
:10545000FC901397CD91DC91B701CE010E94CB4116
:105460008C01892B61F463E080E00E949B0A83E059
:1054700090E00E94E50AF60160817181D8CFFE01BB
:1054800001900020E9F73197CF018C1B9D0BF701AC
:1054900001900020E9F73197EE19FF09D601149623
:1054A000CD90DC90D6010D900020E9F71197AC1952
:1054B000BD098A0F9B1F8E1B9F0B01960E946C409B
:1054C0005C010C1B1D0BA801BE010E94BC41F50133
:1054D000E00FF11F1082B601C5010E94A141F70142
:1054E00001900020E9F73197BF016E197F09600F25
:1054F000711F6C0F7D1FC5010E94A14163E080E018
:105500000E949B0A83E090E00E94E50AB50186EFC5
:1055100092E10E947A08C501DF91CF911F910F910E
:10552000FF90EF90DF90CF90BF90AF900C94084128
:10553000EF92FF920F931F93CF93DF930297A1F007
:1055400063E080E00E949B0A83E090E00E94E50A0D
:1055500069E57AE086EF92E1DF91CF911F910F919B
:10556000FF90EF900C947A08FB01E080F180F70146
:1055700001900020E9F7CF01FB0102811381F801BE
:1055800001900020E9F73197E01BF10BEE19FF09BC
:105590008E0F9F1F0E946C40EC01B7010E94B54125
:1055A000B801CE010E94A14163E080E00E949B0A05
:1055B00083E090E00E94E50ABE0186EF92E10E943E
:1055C0007A08CE01DF91CF911F910F91FF90EF905C
:1055D0000C9408418F929F92AF92BF92CF92DF922C
:1055E000EF92FF92CF93DF93EB010297C1F063E05C
:1055F00080E00E949B0A83E090E00E94E50A68E652
:105600007AE086EF92E1DF91CF91FF90EF90DF900B
:10561000CF90BF90AF909F908F900C947A08888124
:1056200099810E9410386B017C018A819B810E94C4
:105630001038C616D706E806F90684F44B015C015B
:105640008C189D08AE08BF080E949637A5019401EA
:105650000E94FA3AC60ED71EE81EF91E63E080E0EB
:105660000E949B0A83E090E00E94E50A2AE030E075
:10567000B701A60186EF92E1DF91CF91FF90EF9005
:10568000DF90CF90BF90AF909F908F900C943E088A
:10569000CF92DF92EF92FF92019791F063E080E06A
:1056A0000E949B0A83E090E00E94E50A65E77AE0A9
:1056B00086EF92E1FF90EF90DF90CF900C947A0804
:1056C000FB01808191810E94EE370E94C73F6B01F0
:1056D0007C0163E080E00E949B0A83E090E00E94EE
:1056E000E50AC701B601FF90EF90DF90CF900C94D0
:1056F0008208CF92DF92EF92FF92019791F063E0E0
:1057000080E00E949B0A83E090E00E94E50A61E845
:105710007AE086EF92E1FF90EF90DF90CF900C94CB
:105720007A08FB01808191810E94EE370E943C3C07
:105730006B017C0163E080E00E949B0A83E090E0C3
:105740000E94E50AC701B601FF90EF90DF90CF906D
:105750000C948208CF92DF92EF92FF92019791F022
:1057600063E080E00E949B0A83E090E00E94E50AEB
:105770006DE87AE086EF92E1FF90EF90DF90CF90B6
:105780000C947A08FB01808191810E94EE370E947F
:105790004F3F6B017C0163E080E00E949B0A83E045
:1057A00090E00E94E50AC701B601FF90EF90DF90FC
:1057B000CF900C948208CF92DF92EF92FF920197E4
:1057C00091F063E080E00E949B0A83E090E00E94F9
:1057D000E50A69E97AE086EF92E1FF90EF90DF90C9
:1057E000CF900C947A08FB01808191810E94EE3762
:1057F0000E94F63B6B017C0163E080E00E949B0A03
:1058000083E090E00E94E50AC701B601FF90EF90A7
:10581000DF90CF900C948208CF92DF92EF92FF92AC
:10582000019791F063E080E00E949B0A83E090E0A2
:105830000E94E50A65EA7AE086EF92E1FF90EF9038
:10584000DF90CF900C947A08FB01808191810E94B7
:10585000EE370E94D23C6B017C0163E080E00E9445
:105860009B0A83E090E00E94E50AC701B601FF9021
:10587000EF90DF90CF900C9482082F923F924F923E
:105880005F926F927F928F929F92AF92BF92CF92D0
:10589000DF92EF92FF920F931F93CF93DF9300D08D
:1058A00000D000D01F92CDB7DEB79E838D838B01D1
:1058B000029734F563E080E00E949B0A83E090E069
:1058C0000E94E50A60EB7AE086EF92E12A960FB635
:1058D000F894DEBF0FBECDBFDF91CF911F910F9126
:1058E000FF90EF90DF90CF90BF90AF909F908F9000
:1058F0007F906F905F904F903F902F900C947A081C
:10590000DB018D919C910E94EE374B015C0120E000
:1059100030E0A9010E94D33987FD0AC020E030E0C1
:1059200048EC52E4C501B4010E942C3E18165CF408
:1059300063E080E00E949B0A83E090E00E94E50A19
:105940006FEB7AE0C1CFED81FE813197FC83EB8371
:10595000CF01880F991F880F991F0E946C403C014E
:105960007801F2E0EF0EF11C9A8389838D819E818C
:10597000880F991F080F191F6301D7018D919D9101
:105980007D010E94EE37F6016193719381939193AB
:105990006F01E016F10689F7D12CC12C2D813E81D3
:1059A000225031093A87298789859A85C816D906F0
:1059B0000CF03FC09FEFC91AD90A09811A817601FC
:1059C000AB81BC81EA16FB0634F0E981FA8134969A
:1059D000FA83E983E9CFA981BA818D919D910D90D8
:1059E000BC91A02D8D839E83AF83B887F80124805E
:1059F000358046805780A2019101BC01CD010E94F3
:105A00002C3E181684F4A981BA812D923D924D92B4
:105A10005C9213978D819E81AF81B885F801848354
:105A20009583A683B783FFEFEF1AFF0A0C5F1F4F22
:105A3000C7CF20E030E048EC52E4C501B4010E9439
:105A4000583C6B017C012B813C81B901330F880BE1
:105A5000990B0E94DA399B01AC01C701B6010E9483
:105A6000393A0E94253C20E030E040E85FE30E94A4
:105A70006E3B0E94043D660F771F660F771F660D11
:105A8000771DDB01CD90DD90ED90FC9063E080E030
:105A90000E949B0A83E090E00E94E50A69EC7AE0AC
:105AA00086EF92E10E947A08C701B6010E9482083F
:105AB000C3012A960FB6F894DEBF0FBECDBFDF91AB
:105AC000CF911F910F91FF90EF90DF90CF90BF90FB
:105AD000AF909F908F907F906F905F904F903F908E
